{
  "_format": "hh-sol-artifact-1",
  "contractName": "Supplychain",
  "sourceName": "contracts/SupplyChain.sol",
  "abi": [
    {
      "inputs": [],
      "stateMutability": "nonpayable",
      "type": "constructor"
    },
    {
      "inputs": [
        {
          "internalType": "uint256",
          "name": "temp",
          "type": "uint256"
        },
        {
          "internalType": "uint256",
          "name": "humidity",
          "type": "uint256"
        },
        {
          "internalType": "uint256",
          "name": "hindex",
          "type": "uint256"
        },
        {
          "internalType": "uint256",
          "name": "pid",
          "type": "uint256"
        }
      ],
      "name": "AddData",
      "outputs": [],
      "stateMutability": "payable",
      "type": "function"
    },
    {
      "inputs": [
        {
          "internalType": "string",
          "name": "name",
          "type": "string"
        },
        {
          "internalType": "string",
          "name": "price",
          "type": "string"
        },
        {
          "internalType": "string",
          "name": "description",
          "type": "string"
        },
        {
          "internalType": "string",
          "name": "reqtemp",
          "type": "string"
        },
        {
          "internalType": "string",
          "name": "manufacturing",
          "type": "string"
        }
      ],
      "name": "AddProduct",
      "outputs": [],
      "stateMutability": "payable",
      "type": "function"
    },
    {
      "inputs": [
        {
          "internalType": "string",
          "name": "location",
          "type": "string"
        },
        {
          "internalType": "string",
          "name": "temp",
          "type": "string"
        },
        {
          "internalType": "string",
          "name": "humidity",
          "type": "string"
        },
        {
          "internalType": "string",
          "name": "heatindex",
          "type": "string"
        },
        {
          "internalType": "uint256",
          "name": "wid",
          "type": "uint256"
        },
        {
          "internalType": "uint256",
          "name": "pid",
          "type": "uint256"
        },
        {
          "internalType": "uint256",
          "name": "total_quantity",
          "type": "uint256"
        },
        {
          "internalType": "uint256",
          "name": "weight",
          "type": "uint256"
        },
        {
          "internalType": "uint256",
          "name": "waste_product",
          "type": "uint256"
        },
        {
          "internalType": "bool",
          "name": "flag",
          "type": "bool"
        }
      ],
      "name": "AddStatus",
      "outputs": [],
      "stateMutability": "payable",
      "type": "function"
    },
    {
      "inputs": [
        {
          "internalType": "uint256",
          "name": "",
          "type": "uint256"
        }
      ],
      "name": "Data_list",
      "outputs": [
        {
          "internalType": "uint256",
          "name": "temp",
          "type": "uint256"
        },
        {
          "internalType": "uint256",
          "name": "humidity",
          "type": "uint256"
        },
        {
          "internalType": "uint256",
          "name": "hindex",
          "type": "uint256"
        },
        {
          "internalType": "uint256",
          "name": "pid",
          "type": "uint256"
        }
      ],
      "stateMutability": "view",
      "type": "function"
    },
    {
      "inputs": [
        {
          "internalType": "uint256",
          "name": "",
          "type": "uint256"
        },
        {
          "internalType": "uint256",
          "name": "",
          "type": "uint256"
        }
      ],
      "name": "data",
      "outputs": [
        {
          "internalType": "uint256",
          "name": "temp",
          "type": "uint256"
        },
        {
          "internalType": "uint256",
          "name": "humidity",
          "type": "uint256"
        },
        {
          "internalType": "uint256",
          "name": "hindex",
          "type": "uint256"
        },
        {
          "internalType": "uint256",
          "name": "pid",
          "type": "uint256"
        }
      ],
      "stateMutability": "view",
      "type": "function"
    },
    {
      "inputs": [
        {
          "internalType": "uint256",
          "name": "id",
          "type": "uint256"
        }
      ],
      "name": "getProductData",
      "outputs": [
        {
          "components": [
            {
              "internalType": "uint256",
              "name": "temp",
              "type": "uint256"
            },
            {
              "internalType": "uint256",
              "name": "humidity",
              "type": "uint256"
            },
            {
              "internalType": "uint256",
              "name": "hindex",
              "type": "uint256"
            },
            {
              "internalType": "uint256",
              "name": "pid",
              "type": "uint256"
            }
          ],
          "internalType": "struct Supplychain.Data[]",
          "name": "",
          "type": "tuple[]"
        }
      ],
      "stateMutability": "view",
      "type": "function"
    },
    {
      "inputs": [
        {
          "internalType": "uint256",
          "name": "id",
          "type": "uint256"
        }
      ],
      "name": "getProductStatus",
      "outputs": [
        {
          "components": [
            {
              "internalType": "string",
              "name": "location",
              "type": "string"
            },
            {
              "internalType": "uint256",
              "name": "timestamp",
              "type": "uint256"
            },
            {
              "internalType": "string",
              "name": "temp",
              "type": "string"
            },
            {
              "internalType": "string",
              "name": "humidity",
              "type": "string"
            },
            {
              "internalType": "string",
              "name": "heatindex",
              "type": "string"
            },
            {
              "internalType": "uint256",
              "name": "w_id",
              "type": "uint256"
            },
            {
              "internalType": "uint256",
              "name": "p_id",
              "type": "uint256"
            },
            {
              "internalType": "uint256",
              "name": "total_quantity",
              "type": "uint256"
            },
            {
              "internalType": "uint256",
              "name": "weight",
              "type": "uint256"
            },
            {
              "internalType": "uint256",
              "name": "waste_product",
              "type": "uint256"
            },
            {
              "internalType": "bool",
              "name": "flag",
              "type": "bool"
            }
          ],
          "internalType": "struct Supplychain.Status[]",
          "name": "",
          "type": "tuple[]"
        }
      ],
      "stateMutability": "view",
      "type": "function"
    },
    {
      "inputs": [],
      "name": "getWorkerssList",
      "outputs": [
        {
          "components": [
            {
              "internalType": "string",
              "name": "name",
              "type": "string"
            },
            {
              "internalType": "uint256",
              "name": "id",
              "type": "uint256"
            },
            {
              "internalType": "uint256",
              "name": "timestamp",
              "type": "uint256"
            }
          ],
          "internalType": "struct Supplychain.Worker[]",
          "name": "",
          "type": "tuple[]"
        }
      ],
      "stateMutability": "view",
      "type": "function"
    },
    {
      "inputs": [
        {
          "internalType": "uint256",
          "name": "",
          "type": "uint256"
        }
      ],
      "name": "productStatus",
      "outputs": [
        {
          "internalType": "string",
          "name": "location",
          "type": "string"
        },
        {
          "internalType": "uint256",
          "name": "timestamp",
          "type": "uint256"
        },
        {
          "internalType": "string",
          "name": "temp",
          "type": "string"
        },
        {
          "internalType": "string",
          "name": "humidity",
          "type": "string"
        },
        {
          "internalType": "string",
          "name": "heatindex",
          "type": "string"
        },
        {
          "internalType": "uint256",
          "name": "w_id",
          "type": "uint256"
        },
        {
          "internalType": "uint256",
          "name": "p_id",
          "type": "uint256"
        },
        {
          "internalType": "uint256",
          "name": "total_quantity",
          "type": "uint256"
        },
        {
          "internalType": "uint256",
          "name": "weight",
          "type": "uint256"
        },
        {
          "internalType": "uint256",
          "name": "waste_product",
          "type": "uint256"
        },
        {
          "internalType": "bool",
          "name": "flag",
          "type": "bool"
        }
      ],
      "stateMutability": "view",
      "type": "function"
    },
    {
      "inputs": [
        {
          "internalType": "uint256",
          "name": "",
          "type": "uint256"
        },
        {
          "internalType": "uint256",
          "name": "",
          "type": "uint256"
        }
      ],
      "name": "product_Status",
      "outputs": [
        {
          "internalType": "string",
          "name": "location",
          "type": "string"
        },
        {
          "internalType": "uint256",
          "name": "timestamp",
          "type": "uint256"
        },
        {
          "internalType": "string",
          "name": "temp",
          "type": "string"
        },
        {
          "internalType": "string",
          "name": "humidity",
          "type": "string"
        },
        {
          "internalType": "string",
          "name": "heatindex",
          "type": "string"
        },
        {
          "internalType": "uint256",
          "name": "w_id",
          "type": "uint256"
        },
        {
          "internalType": "uint256",
          "name": "p_id",
          "type": "uint256"
        },
        {
          "internalType": "uint256",
          "name": "total_quantity",
          "type": "uint256"
        },
        {
          "internalType": "uint256",
          "name": "weight",
          "type": "uint256"
        },
        {
          "internalType": "uint256",
          "name": "waste_product",
          "type": "uint256"
        },
        {
          "internalType": "bool",
          "name": "flag",
          "type": "bool"
        }
      ],
      "stateMutability": "view",
      "type": "function"
    },
    {
      "inputs": [
        {
          "internalType": "uint256",
          "name": "",
          "type": "uint256"
        }
      ],
      "name": "products",
      "outputs": [
        {
          "internalType": "uint256",
          "name": "id",
          "type": "uint256"
        },
        {
          "internalType": "string",
          "name": "name",
          "type": "string"
        },
        {
          "internalType": "string",
          "name": "price",
          "type": "string"
        },
        {
          "internalType": "string",
          "name": "description",
          "type": "string"
        },
        {
          "internalType": "string",
          "name": "reqtemp",
          "type": "string"
        },
        {
          "internalType": "string",
          "name": "manufacturing",
          "type": "string"
        },
        {
          "internalType": "uint256",
          "name": "timestamp",
          "type": "uint256"
        }
      ],
      "stateMutability": "view",
      "type": "function"
    },
    {
      "inputs": [
        {
          "internalType": "uint256",
          "name": "",
          "type": "uint256"
        }
      ],
      "name": "products_list",
      "outputs": [
        {
          "internalType": "uint256",
          "name": "id",
          "type": "uint256"
        },
        {
          "internalType": "string",
          "name": "name",
          "type": "string"
        },
        {
          "internalType": "string",
          "name": "price",
          "type": "string"
        },
        {
          "internalType": "string",
          "name": "description",
          "type": "string"
        },
        {
          "internalType": "string",
          "name": "reqtemp",
          "type": "string"
        },
        {
          "internalType": "string",
          "name": "manufacturing",
          "type": "string"
        },
        {
          "internalType": "uint256",
          "name": "timestamp",
          "type": "uint256"
        }
      ],
      "stateMutability": "view",
      "type": "function"
    },
    {
      "inputs": [
        {
          "internalType": "string",
          "name": "name",
          "type": "string"
        }
      ],
      "name": "setWorker",
      "outputs": [],
      "stateMutability": "payable",
      "type": "function"
    },
    {
      "inputs": [
        {
          "internalType": "uint256",
          "name": "",
          "type": "uint256"
        }
      ],
      "name": "workers",
      "outputs": [
        {
          "internalType": "string",
          "name": "name",
          "type": "string"
        },
        {
          "internalType": "uint256",
          "name": "id",
          "type": "uint256"
        },
        {
          "internalType": "uint256",
          "name": "timestamp",
          "type": "uint256"
        }
      ],
      "stateMutability": "view",
      "type": "function"
    },
    {
      "inputs": [
        {
          "internalType": "uint256",
          "name": "",
          "type": "uint256"
        }
      ],
      "name": "workers_list",
      "outputs": [
        {
          "internalType": "string",
          "name": "name",
          "type": "string"
        },
        {
          "internalType": "uint256",
          "name": "id",
          "type": "uint256"
        },
        {
          "internalType": "uint256",
          "name": "timestamp",
          "type": "uint256"
        }
      ],
      "stateMutability": "view",
      "type": "function"
    }
  ],
  "bytecode": "0x60806040526000600155600060025534801561001a57600080fd5b50336000806101000a81548173ffffffffffffffffffffffffffffffffffffffff021916908373ffffffffffffffffffffffffffffffffffffffff160217905550612c448061006a6000396000f3fe6080604052600436106100e85760003560e01c80637acc0b201161008a578063bd347ed711610059578063bd347ed71461030e578063d6d0be9f14610355578063f1a22dc214610392578063f7aed773146103d1576100e8565b80637acc0b2014610268578063876afa61146102ab578063a2f714fc146102d6578063b20fca60146102f2576100e8565b80632a4994fc116100c65780632a4994fc1461018d5780635173bd1e146101a957806355ed1a01146101e95780637109ad8214610228576100e8565b80630ea3d3ee146100ed57806313f6b1bb146101345780632383a2dd14610171575b600080fd5b3480156100f957600080fd5b50610114600480360381019061010f919061224d565b610414565b60405161012b9b9a9998979695949392919061275a565b60405180910390f35b34801561014057600080fd5b5061015b6004803603810190610156919061224d565b6106ab565b6040516101689190612716565b60405180910390f35b61018b600480360381019061018691906122b2565b6109bd565b005b6101a760048036038101906101a29190611fe2565b610ad0565b005b3480156101b557600080fd5b506101d060048036038101906101cb9190612276565b610bef565b6040516101e094939291906128f1565b60405180910390f35b3480156101f557600080fd5b50610210600480360381019061020b919061224d565b610c3c565b60405161021f93929190612821565b60405180910390f35b34801561023457600080fd5b5061024f600480360381019061024a919061224d565b610cfe565b60405161025f94939291906128f1565b60405180910390f35b34801561027457600080fd5b5061028f600480360381019061028a919061224d565b610d3e565b6040516102a2979695949392919061285f565b60405180910390f35b3480156102b757600080fd5b506102c0611028565b6040516102cd9190612738565b60405180910390f35b6102f060048036038101906102eb9190612112565b61112d565b005b61030c60048036038101906103079190612023565b6114a0565b005b34801561031a57600080fd5b5061033560048036038101906103309190612276565b611737565b60405161034c9b9a9998979695949392919061275a565b60405180910390f35b34801561036157600080fd5b5061037c6004803603810190610377919061224d565b6119da565b60405161038991906126f4565b60405180910390f35b34801561039e57600080fd5b506103b960048036038101906103b4919061224d565b611a74565b6040516103c893929190612821565b60405180910390f35b3480156103dd57600080fd5b506103f860048036038101906103f3919061224d565b611b26565b60405161040b979695949392919061285f565b60405180910390f35b600b818154811061042457600080fd5b90600052602060002090600b020160009150905080600001805461044790612ac7565b80601f016020809104026020016040519081016040528092919081815260200182805461047390612ac7565b80156104c05780601f10610495576101008083540402835291602001916104c0565b820191906000526020600020905b8154815290600101906020018083116104a357829003601f168201915b5050505050908060010154908060020180546104db90612ac7565b80601f016020809104026020016040519081016040528092919081815260200182805461050790612ac7565b80156105545780601f1061052957610100808354040283529160200191610554565b820191906000526020600020905b81548152906001019060200180831161053757829003601f168201915b50505050509080600301805461056990612ac7565b80601f016020809104026020016040519081016040528092919081815260200182805461059590612ac7565b80156105e25780601f106105b7576101008083540402835291602001916105e2565b820191906000526020600020905b8154815290600101906020018083116105c557829003601f168201915b5050505050908060040180546105f790612ac7565b80601f016020809104026020016040519081016040528092919081815260200182805461062390612ac7565b80156106705780601f1061064557610100808354040283529160200191610670565b820191906000526020600020905b81548152906001019060200180831161065357829003601f168201915b50505050509080600501549080600601549080600701549080600801549080600901549080600a0160009054906101000a900460ff1690508b565b606060206000838152602001908152602001600020805480602002602001604051908101604052809291908181526020016000905b828210156109b257838290600052602060002090600b02016040518061016001604052908160008201805461071490612ac7565b80601f016020809104026020016040519081016040528092919081815260200182805461074090612ac7565b801561078d5780601f106107625761010080835404028352916020019161078d565b820191906000526020600020905b81548152906001019060200180831161077057829003601f168201915b50505050508152602001600182015481526020016002820180546107b090612ac7565b80601f01602080910402602001604051908101604052809291908181526020018280546107dc90612ac7565b80156108295780601f106107fe57610100808354040283529160200191610829565b820191906000526020600020905b81548152906001019060200180831161080c57829003601f168201915b5050505050815260200160038201805461084290612ac7565b80601f016020809104026020016040519081016040528092919081815260200182805461086e90612ac7565b80156108bb5780601f10610890576101008083540402835291602001916108bb565b820191906000526020600020905b81548152906001019060200180831161089e57829003601f168201915b505050505081526020016004820180546108d490612ac7565b80601f016020809104026020016040519081016040528092919081815260200182805461090090612ac7565b801561094d5780601f106109225761010080835404028352916020019161094d565b820191906000526020600020905b81548152906001019060200180831161093057829003601f168201915b505050505081526020016005820154815260200160068201548152602001600782015481526020016008820154815260200160098201548152602001600a820160009054906101000a900460ff161515151581525050815260200190600101906106e0565b505050509050919050565b604051806080016040528085815260200184815260200183815260200182815250601c6000820151816000015560208201518160010155604082015181600201556060820151816003015590505060236000828152602001908152602001600020601c9080600181540180825580915050600190039060005260206000209060040201600090919091909150600082015481600001556001820154816001015560028201548160020155600382015481600301555050601b601c908060018154018082558091505060019003906000526020600020906004020160009091909190915060008201548160000155600182015481600101556002820154816002015560038201548160030155505050505050565b604051806060016040528082815260200160025481526020014281525060186000820151816000019080519060200190610b0b929190611e20565b50602082015181600101556040820151816002015590505060186022600060025481526020019081526020016000206000820181600001908054610b4e90612ac7565b610b59929190611ea6565b5060018201548160010155600282015481600201559050506017601890806001815401808255809150506001900390600052602060002090600302016000909190919091506000820181600001908054610bb290612ac7565b610bbd929190611ea6565b506001820154816001015560028201548160020155505060026000815480929190610be790612af9565b919050555050565b60236020528160005260406000208181548110610c0b57600080fd5b9060005260206000209060040201600091509150508060000154908060010154908060020154908060030154905084565b60178181548110610c4c57600080fd5b9060005260206000209060030201600091509050806000018054610c6f90612ac7565b80601f0160208091040260200160405190810160405280929190818152602001828054610c9b90612ac7565b8015610ce85780601f10610cbd57610100808354040283529160200191610ce8565b820191906000526020600020905b815481529060010190602001808311610ccb57829003601f168201915b5050505050908060010154908060020154905083565b601b8181548110610d0e57600080fd5b90600052602060002090600402016000915090508060000154908060010154908060020154908060030154905084565b6021602052806000526040600020600091509050806000015490806001018054610d6790612ac7565b80601f0160208091040260200160405190810160405280929190818152602001828054610d9390612ac7565b8015610de05780601f10610db557610100808354040283529160200191610de0565b820191906000526020600020905b815481529060010190602001808311610dc357829003601f168201915b505050505090806002018054610df590612ac7565b80601f0160208091040260200160405190810160405280929190818152602001828054610e2190612ac7565b8015610e6e5780601f10610e4357610100808354040283529160200191610e6e565b820191906000526020600020905b815481529060010190602001808311610e5157829003601f168201915b505050505090806003018054610e8390612ac7565b80601f0160208091040260200160405190810160405280929190818152602001828054610eaf90612ac7565b8015610efc5780601f10610ed157610100808354040283529160200191610efc565b820191906000526020600020905b815481529060010190602001808311610edf57829003601f168201915b505050505090806004018054610f1190612ac7565b80601f0160208091040260200160405190810160405280929190818152602001828054610f3d90612ac7565b8015610f8a5780601f10610f5f57610100808354040283529160200191610f8a565b820191906000526020600020905b815481529060010190602001808311610f6d57829003601f168201915b505050505090806005018054610f9f90612ac7565b80601f0160208091040260200160405190810160405280929190818152602001828054610fcb90612ac7565b80156110185780601f10610fed57610100808354040283529160200191611018565b820191906000526020600020905b815481529060010190602001808311610ffb57829003601f168201915b5050505050908060060154905087565b60606017805480602002602001604051908101604052809291908181526020016000905b82821015611124578382906000526020600020906003020160405180606001604052908160008201805461107f90612ac7565b80601f01602080910402602001604051908101604052809291908181526020018280546110ab90612ac7565b80156110f85780601f106110cd576101008083540402835291602001916110f8565b820191906000526020600020905b8154815290600101906020018083116110db57829003601f168201915b50505050508152602001600182015481526020016002820154815250508152602001906001019061104c565b50505050905090565b6040518061016001604052808b81526020014281526020018a8152602001898152602001888152602001878152602001868152602001858152602001848152602001838152602001821515815250600c6000820151816000019080519060200190611199929190611e20565b506020820151816001015560408201518160020190805190602001906111c0929190611e20565b5060608201518160030190805190602001906111dd929190611e20565b5060808201518160040190805190602001906111fa929190611e20565b5060a0820151816005015560c0820151816006015560e082015181600701556101008201518160080155610120820151816009015561014082015181600a0160006101000a81548160ff02191690831515021790555090505060206000868152602001908152602001600020600c90806001815401808255809150506001900390600052602060002090600b020160009091909190915060008201816000019080546112a590612ac7565b6112b0929190611ea6565b506001820154816001015560028201816002019080546112cf90612ac7565b6112da929190611ea6565b5060038201816003019080546112ef90612ac7565b6112fa929190611ea6565b50600482018160040190805461130f90612ac7565b61131a929190611ea6565b506005820154816005015560068201548160060155600782015481600701556008820154816008015560098201548160090155600a820160009054906101000a900460ff1681600a0160006101000a81548160ff0219169083151502179055505050600b600c90806001815401808255809150506001900390600052602060002090600b020160009091909190915060008201816000019080546113bd90612ac7565b6113c8929190611ea6565b506001820154816001015560028201816002019080546113e790612ac7565b6113f2929190611ea6565b50600382018160030190805461140790612ac7565b611412929190611ea6565b50600482018160040190805461142790612ac7565b611432929190611ea6565b506005820154816005015560068201548160060155600782015481600701556008820154816008015560098201548160090155600a820160009054906101000a900460ff1681600a0160006101000a81548160ff021916908315150217905550505050505050505050505050565b6040518060e0016040528060015481526020018681526020018581526020018481526020018381526020018281526020014281525060046000820151816000015560208201518160010190805190602001906114fd929190611e20565b50604082015181600201908051906020019061151a929190611e20565b506060820151816003019080519060200190611537929190611e20565b506080820151816004019080519060200190611554929190611e20565b5060a0820151816005019080519060200190611571929190611e20565b5060c0820151816006015590505060046021600060015481526020019081526020016000206000820154816000015560018201816001019080546115b490612ac7565b6115bf929190611ea6565b5060028201816002019080546115d490612ac7565b6115df929190611ea6565b5060038201816003019080546115f490612ac7565b6115ff929190611ea6565b50600482018160040190805461161490612ac7565b61161f929190611ea6565b50600582018160050190805461163490612ac7565b61163f929190611ea6565b506006820154816006015590505060036004908060018154018082558091505060019003906000526020600020906007020160009091909190915060008201548160000155600182018160010190805461169890612ac7565b6116a3929190611ea6565b5060028201816002019080546116b890612ac7565b6116c3929190611ea6565b5060038201816003019080546116d890612ac7565b6116e3929190611ea6565b5060048201816004019080546116f890612ac7565b611703929190611ea6565b50600582018160050190805461171890612ac7565b611723929190611ea6565b506006820154816006015550505050505050565b60208052816000526040600020818154811061175257600080fd5b90600052602060002090600b02016000915091505080600001805461177690612ac7565b80601f01602080910402602001604051908101604052809291908181526020018280546117a290612ac7565b80156117ef5780601f106117c4576101008083540402835291602001916117ef565b820191906000526020600020905b8154815290600101906020018083116117d257829003601f168201915b50505050509080600101549080600201805461180a90612ac7565b80601f016020809104026020016040519081016040528092919081815260200182805461183690612ac7565b80156118835780601f1061185857610100808354040283529160200191611883565b820191906000526020600020905b81548152906001019060200180831161186657829003601f168201915b50505050509080600301805461189890612ac7565b80601f01602080910402602001604051908101604052809291908181526020018280546118c490612ac7565b80156119115780601f106118e657610100808354040283529160200191611911565b820191906000526020600020905b8154815290600101906020018083116118f457829003601f168201915b50505050509080600401805461192690612ac7565b80601f016020809104026020016040519081016040528092919081815260200182805461195290612ac7565b801561199f5780601f106119745761010080835404028352916020019161199f565b820191906000526020600020905b81548152906001019060200180831161198257829003601f168201915b50505050509080600501549080600601549080600701549080600801549080600901549080600a0160009054906101000a900460ff1690508b565b606060236000838152602001908152602001600020805480602002602001604051908101604052809291908181526020016000905b82821015611a69578382906000526020600020906004020160405180608001604052908160008201548152602001600182015481526020016002820154815260200160038201548152505081526020019060010190611a0f565b505050509050919050565b6022602052806000526040600020600091509050806000018054611a9790612ac7565b80601f0160208091040260200160405190810160405280929190818152602001828054611ac390612ac7565b8015611b105780601f10611ae557610100808354040283529160200191611b10565b820191906000526020600020905b815481529060010190602001808311611af357829003601f168201915b5050505050908060010154908060020154905083565b60038181548110611b3657600080fd5b9060005260206000209060070201600091509050806000015490806001018054611b5f90612ac7565b80601f0160208091040260200160405190810160405280929190818152602001828054611b8b90612ac7565b8015611bd85780601f10611bad57610100808354040283529160200191611bd8565b820191906000526020600020905b815481529060010190602001808311611bbb57829003601f168201915b505050505090806002018054611bed90612ac7565b80601f0160208091040260200160405190810160405280929190818152602001828054611c1990612ac7565b8015611c665780601f10611c3b57610100808354040283529160200191611c66565b820191906000526020600020905b815481529060010190602001808311611c4957829003601f168201915b505050505090806003018054611c7b90612ac7565b80601f0160208091040260200160405190810160405280929190818152602001828054611ca790612ac7565b8015611cf45780601f10611cc957610100808354040283529160200191611cf4565b820191906000526020600020905b815481529060010190602001808311611cd757829003601f168201915b505050505090806004018054611d0990612ac7565b80601f0160208091040260200160405190810160405280929190818152602001828054611d3590612ac7565b8015611d825780601f10611d5757610100808354040283529160200191611d82565b820191906000526020600020905b815481529060010190602001808311611d6557829003601f168201915b505050505090806005018054611d9790612ac7565b80601f0160208091040260200160405190810160405280929190818152602001828054611dc390612ac7565b8015611e105780601f10611de557610100808354040283529160200191611e10565b820191906000526020600020905b815481529060010190602001808311611df357829003601f168201915b5050505050908060060154905087565b828054611e2c90612ac7565b90600052602060002090601f016020900481019282611e4e5760008555611e95565b82601f10611e6757805160ff1916838001178555611e95565b82800160010185558215611e95579182015b82811115611e94578251825591602001919060010190611e79565b5b509050611ea29190611f33565b5090565b828054611eb290612ac7565b90600052602060002090601f016020900481019282611ed45760008555611f22565b82601f10611ee55780548555611f22565b82800160010185558215611f2257600052602060002091601f016020900482015b82811115611f21578254825591600101919060010190611f06565b5b509050611f2f9190611f33565b5090565b5b80821115611f4c576000816000905550600101611f34565b5090565b6000611f63611f5e84612967565b612936565b905082815260208101848484011115611f7b57600080fd5b611f86848285612a85565b509392505050565b600081359050611f9d81612be0565b92915050565b600082601f830112611fb457600080fd5b8135611fc4848260208601611f50565b91505092915050565b600081359050611fdc81612bf7565b92915050565b600060208284031215611ff457600080fd5b600082013567ffffffffffffffff81111561200e57600080fd5b61201a84828501611fa3565b91505092915050565b600080600080600060a0868803121561203b57600080fd5b600086013567ffffffffffffffff81111561205557600080fd5b61206188828901611fa3565b955050602086013567ffffffffffffffff81111561207e57600080fd5b61208a88828901611fa3565b945050604086013567ffffffffffffffff8111156120a757600080fd5b6120b388828901611fa3565b935050606086013567ffffffffffffffff8111156120d057600080fd5b6120dc88828901611fa3565b925050608086013567ffffffffffffffff8111156120f957600080fd5b61210588828901611fa3565b9150509295509295909350565b6000806000806000806000806000806101408b8d03121561213257600080fd5b60008b013567ffffffffffffffff81111561214c57600080fd5b6121588d828e01611fa3565b9a505060208b013567ffffffffffffffff81111561217557600080fd5b6121818d828e01611fa3565b99505060408b013567ffffffffffffffff81111561219e57600080fd5b6121aa8d828e01611fa3565b98505060608b013567ffffffffffffffff8111156121c757600080fd5b6121d38d828e01611fa3565b97505060806121e48d828e01611fcd565b96505060a06121f58d828e01611fcd565b95505060c06122068d828e01611fcd565b94505060e06122178d828e01611fcd565b9350506101006122298d828e01611fcd565b92505061012061223b8d828e01611f8e565b9150509295989b9194979a5092959850565b60006020828403121561225f57600080fd5b600061226d84828501611fcd565b91505092915050565b6000806040838503121561228957600080fd5b600061229785828601611fcd565b92505060206122a885828601611fcd565b9150509250929050565b600080600080608085870312156122c857600080fd5b60006122d687828801611fcd565b94505060206122e787828801611fcd565b93505060406122f887828801611fcd565b925050606061230987828801611fcd565b91505092959194509250565b6000612321838361252d565b60808301905092915050565b60006123398383612582565b905092915050565b600061234d8383612686565b905092915050565b6000612360826129c7565b61236a8185612a1a565b935061237583612997565b8060005b838110156123a657815161238d8882612315565b9750612398836129f3565b925050600181019050612379565b5085935050505092915050565b60006123be826129d2565b6123c88185612a2b565b9350836020820285016123da856129a7565b8060005b8581101561241657848403895281516123f7858261232d565b945061240283612a00565b925060208a019950506001810190506123de565b50829750879550505050505092915050565b6000612433826129dd565b61243d8185612a3c565b93508360208202850161244f856129b7565b8060005b8581101561248b578484038952815161246c8582612341565b945061247783612a0d565b925060208a01995050600181019050612453565b50829750879550505050505092915050565b6124a681612a6f565b82525050565b6124b581612a6f565b82525050565b60006124c6826129e8565b6124d08185612a4d565b93506124e0818560208601612a94565b6124e981612bcf565b840191505092915050565b60006124ff826129e8565b6125098185612a5e565b9350612519818560208601612a94565b61252281612bcf565b840191505092915050565b60808201600082015161254360008501826126d6565b50602082015161255660208501826126d6565b50604082015161256960408501826126d6565b50606082015161257c60608501826126d6565b50505050565b60006101608301600083015184820360008601526125a082826124bb565b91505060208301516125b560208601826126d6565b50604083015184820360408601526125cd82826124bb565b915050606083015184820360608601526125e782826124bb565b9150506080830151848203608086015261260182826124bb565b91505060a083015161261660a08601826126d6565b5060c083015161262960c08601826126d6565b5060e083015161263c60e08601826126d6565b506101008301516126516101008601826126d6565b506101208301516126666101208601826126d6565b5061014083015161267b61014086018261249d565b508091505092915050565b600060608301600083015184820360008601526126a382826124bb565b91505060208301516126b860208601826126d6565b5060408301516126cb60408601826126d6565b508091505092915050565b6126df81612a7b565b82525050565b6126ee81612a7b565b82525050565b6000602082019050818103600083015261270e8184612355565b905092915050565b6000602082019050818103600083015261273081846123b3565b905092915050565b600060208201905081810360008301526127528184612428565b905092915050565b6000610160820190508181036000830152612775818e6124f4565b9050612784602083018d6126e5565b8181036040830152612796818c6124f4565b905081810360608301526127aa818b6124f4565b905081810360808301526127be818a6124f4565b90506127cd60a08301896126e5565b6127da60c08301886126e5565b6127e760e08301876126e5565b6127f56101008301866126e5565b6128036101208301856126e5565b6128116101408301846124ac565b9c9b505050505050505050505050565b6000606082019050818103600083015261283b81866124f4565b905061284a60208301856126e5565b61285760408301846126e5565b949350505050565b600060e082019050612874600083018a6126e5565b818103602083015261288681896124f4565b9050818103604083015261289a81886124f4565b905081810360608301526128ae81876124f4565b905081810360808301526128c281866124f4565b905081810360a08301526128d681856124f4565b90506128e560c08301846126e5565b98975050505050505050565b600060808201905061290660008301876126e5565b61291360208301866126e5565b61292060408301856126e5565b61292d60608301846126e5565b95945050505050565b6000604051905081810181811067ffffffffffffffff8211171561295d5761295c612ba0565b5b8060405250919050565b600067ffffffffffffffff82111561298257612981612ba0565b5b601f19601f8301169050602081019050919050565b6000819050602082019050919050565b6000819050602082019050919050565b6000819050602082019050919050565b600081519050919050565b600081519050919050565b600081519050919050565b600081519050919050565b6000602082019050919050565b6000602082019050919050565b6000602082019050919050565b600082825260208201905092915050565b600082825260208201905092915050565b600082825260208201905092915050565b600082825260208201905092915050565b600082825260208201905092915050565b60008115159050919050565b6000819050919050565b82818337600083830152505050565b60005b83811015612ab2578082015181840152602081019050612a97565b83811115612ac1576000848401525b50505050565b60006002820490506001821680612adf57607f821691505b60208210811415612af357612af2612b71565b5b50919050565b6000612b0482612a7b565b91507fffffffffffffffffffffffffffffffffffffffffffffffffffffffffffffffff821415612b3757612b36612b42565b5b600182019050919050565b7f4e487b7100000000000000000000000000000000000000000000000000000000600052601160045260246000fd5b7f4e487b7100000000000000000000000000000000000000000000000000000000600052602260045260246000fd5b7f4e487b7100000000000000000000000000000000000000000000000000000000600052604160045260246000fd5b6000601f19601f8301169050919050565b612be981612a6f565b8114612bf457600080fd5b50565b612c0081612a7b565b8114612c0b57600080fd5b5056fea2646970667358221220c396373cc7181235c2864b5c02ed60e1f9bd77c78711d818e0eba500f2fd1a2d64736f6c63430008000033",
  "linkReferences": {},
  "deployedLinkReferences": {}
}