{
  "_format": "hh-sol-artifact-1",
  "contractName": "Supplychain",
  "sourceName": "contracts/SupplyChain.sol",
  "abi": [
    {
      "inputs": [],
      "stateMutability": "nonpayable",
      "type": "constructor"
    },
    {
      "inputs": [
        {
          "internalType": "uint256",
          "name": "temp",
          "type": "uint256"
        },
        {
          "internalType": "uint256",
          "name": "humidity",
          "type": "uint256"
        },
        {
          "internalType": "uint256",
          "name": "hindex",
          "type": "uint256"
        },
        {
          "internalType": "uint256",
          "name": "pid",
          "type": "uint256"
        }
      ],
      "name": "AddData",
      "outputs": [],
      "stateMutability": "payable",
      "type": "function"
    },
    {
      "inputs": [
        {
          "internalType": "string",
          "name": "name",
          "type": "string"
        },
        {
          "internalType": "string",
          "name": "price",
          "type": "string"
        },
        {
          "internalType": "string",
          "name": "description",
          "type": "string"
        },
        {
          "internalType": "string",
          "name": "reqtemp",
          "type": "string"
        },
        {
          "internalType": "string",
          "name": "manufacturing",
          "type": "string"
        }
      ],
      "name": "AddProduct",
      "outputs": [],
      "stateMutability": "payable",
      "type": "function"
    },
    {
      "inputs": [
        {
          "internalType": "string",
          "name": "location",
          "type": "string"
        },
        {
          "internalType": "string",
          "name": "temp",
          "type": "string"
        },
        {
          "internalType": "string",
          "name": "humidity",
          "type": "string"
        },
        {
          "internalType": "string",
          "name": "heatindex",
          "type": "string"
        },
        {
          "internalType": "uint256",
          "name": "wid",
          "type": "uint256"
        },
        {
          "internalType": "uint256",
          "name": "pid",
          "type": "uint256"
        },
        {
          "internalType": "uint256",
          "name": "total_quantity",
          "type": "uint256"
        },
        {
          "internalType": "uint256",
          "name": "weight",
          "type": "uint256"
        },
        {
          "internalType": "uint256",
          "name": "waste_product",
          "type": "uint256"
        },
        {
          "internalType": "bool",
          "name": "flag",
          "type": "bool"
        }
      ],
      "name": "AddStatus",
      "outputs": [],
      "stateMutability": "payable",
      "type": "function"
    },
    {
      "inputs": [
        {
          "internalType": "uint256",
          "name": "",
          "type": "uint256"
        }
      ],
      "name": "Data_list",
      "outputs": [
        {
          "internalType": "uint256",
          "name": "temp",
          "type": "uint256"
        },
        {
          "internalType": "uint256",
          "name": "humidity",
          "type": "uint256"
        },
        {
          "internalType": "uint256",
          "name": "hindex",
          "type": "uint256"
        },
        {
          "internalType": "uint256",
          "name": "pid",
          "type": "uint256"
        }
      ],
      "stateMutability": "view",
      "type": "function"
    },
    {
      "inputs": [
        {
          "internalType": "uint256",
          "name": "",
          "type": "uint256"
        },
        {
          "internalType": "uint256",
          "name": "",
          "type": "uint256"
        }
      ],
      "name": "data",
      "outputs": [
        {
          "internalType": "uint256",
          "name": "temp",
          "type": "uint256"
        },
        {
          "internalType": "uint256",
          "name": "humidity",
          "type": "uint256"
        },
        {
          "internalType": "uint256",
          "name": "hindex",
          "type": "uint256"
        },
        {
          "internalType": "uint256",
          "name": "pid",
          "type": "uint256"
        }
      ],
      "stateMutability": "view",
      "type": "function"
    },
    {
      "inputs": [
        {
          "internalType": "uint256",
          "name": "id",
          "type": "uint256"
        }
      ],
      "name": "getProductData",
      "outputs": [
        {
          "components": [
            {
              "internalType": "uint256",
              "name": "temp",
              "type": "uint256"
            },
            {
              "internalType": "uint256",
              "name": "humidity",
              "type": "uint256"
            },
            {
              "internalType": "uint256",
              "name": "hindex",
              "type": "uint256"
            },
            {
              "internalType": "uint256",
              "name": "pid",
              "type": "uint256"
            }
          ],
          "internalType": "struct Supplychain.Data[]",
          "name": "",
          "type": "tuple[]"
        }
      ],
      "stateMutability": "view",
      "type": "function"
    },
    {
      "inputs": [
        {
          "internalType": "uint256",
          "name": "id",
          "type": "uint256"
        }
      ],
      "name": "getProductStatus",
      "outputs": [
        {
          "components": [
            {
              "internalType": "string",
              "name": "location",
              "type": "string"
            },
            {
              "internalType": "uint256",
              "name": "timestamp",
              "type": "uint256"
            },
            {
              "internalType": "string",
              "name": "temp",
              "type": "string"
            },
            {
              "internalType": "string",
              "name": "humidity",
              "type": "string"
            },
            {
              "internalType": "string",
              "name": "heatindex",
              "type": "string"
            },
            {
              "internalType": "uint256",
              "name": "w_id",
              "type": "uint256"
            },
            {
              "internalType": "uint256",
              "name": "p_id",
              "type": "uint256"
            },
            {
              "internalType": "uint256",
              "name": "total_quantity",
              "type": "uint256"
            },
            {
              "internalType": "uint256",
              "name": "weight",
              "type": "uint256"
            },
            {
              "internalType": "uint256",
              "name": "waste_product",
              "type": "uint256"
            },
            {
              "internalType": "bool",
              "name": "flag",
              "type": "bool"
            }
          ],
          "internalType": "struct Supplychain.Status[]",
          "name": "",
          "type": "tuple[]"
        }
      ],
      "stateMutability": "view",
      "type": "function"
    },
    {
      "inputs": [],
      "name": "getProducts",
      "outputs": [
        {
          "components": [
            {
              "internalType": "uint256",
              "name": "id",
              "type": "uint256"
            },
            {
              "internalType": "string",
              "name": "name",
              "type": "string"
            },
            {
              "internalType": "string",
              "name": "price",
              "type": "string"
            },
            {
              "internalType": "string",
              "name": "description",
              "type": "string"
            },
            {
              "internalType": "string",
              "name": "reqtemp",
              "type": "string"
            },
            {
              "internalType": "string",
              "name": "manufacturing",
              "type": "string"
            },
            {
              "internalType": "uint256",
              "name": "timestamp",
              "type": "uint256"
            }
          ],
          "internalType": "struct Supplychain.Product[]",
          "name": "",
          "type": "tuple[]"
        }
      ],
      "stateMutability": "view",
      "type": "function"
    },
    {
      "inputs": [],
      "name": "getWorkerssList",
      "outputs": [
        {
          "components": [
            {
              "internalType": "string",
              "name": "name",
              "type": "string"
            },
            {
              "internalType": "uint256",
              "name": "id",
              "type": "uint256"
            },
            {
              "internalType": "uint256",
              "name": "timestamp",
              "type": "uint256"
            }
          ],
          "internalType": "struct Supplychain.Worker[]",
          "name": "",
          "type": "tuple[]"
        }
      ],
      "stateMutability": "view",
      "type": "function"
    },
    {
      "inputs": [
        {
          "internalType": "uint256",
          "name": "",
          "type": "uint256"
        }
      ],
      "name": "productStatus",
      "outputs": [
        {
          "internalType": "string",
          "name": "location",
          "type": "string"
        },
        {
          "internalType": "uint256",
          "name": "timestamp",
          "type": "uint256"
        },
        {
          "internalType": "string",
          "name": "temp",
          "type": "string"
        },
        {
          "internalType": "string",
          "name": "humidity",
          "type": "string"
        },
        {
          "internalType": "string",
          "name": "heatindex",
          "type": "string"
        },
        {
          "internalType": "uint256",
          "name": "w_id",
          "type": "uint256"
        },
        {
          "internalType": "uint256",
          "name": "p_id",
          "type": "uint256"
        },
        {
          "internalType": "uint256",
          "name": "total_quantity",
          "type": "uint256"
        },
        {
          "internalType": "uint256",
          "name": "weight",
          "type": "uint256"
        },
        {
          "internalType": "uint256",
          "name": "waste_product",
          "type": "uint256"
        },
        {
          "internalType": "bool",
          "name": "flag",
          "type": "bool"
        }
      ],
      "stateMutability": "view",
      "type": "function"
    },
    {
      "inputs": [
        {
          "internalType": "uint256",
          "name": "",
          "type": "uint256"
        },
        {
          "internalType": "uint256",
          "name": "",
          "type": "uint256"
        }
      ],
      "name": "product_Status",
      "outputs": [
        {
          "internalType": "string",
          "name": "location",
          "type": "string"
        },
        {
          "internalType": "uint256",
          "name": "timestamp",
          "type": "uint256"
        },
        {
          "internalType": "string",
          "name": "temp",
          "type": "string"
        },
        {
          "internalType": "string",
          "name": "humidity",
          "type": "string"
        },
        {
          "internalType": "string",
          "name": "heatindex",
          "type": "string"
        },
        {
          "internalType": "uint256",
          "name": "w_id",
          "type": "uint256"
        },
        {
          "internalType": "uint256",
          "name": "p_id",
          "type": "uint256"
        },
        {
          "internalType": "uint256",
          "name": "total_quantity",
          "type": "uint256"
        },
        {
          "internalType": "uint256",
          "name": "weight",
          "type": "uint256"
        },
        {
          "internalType": "uint256",
          "name": "waste_product",
          "type": "uint256"
        },
        {
          "internalType": "bool",
          "name": "flag",
          "type": "bool"
        }
      ],
      "stateMutability": "view",
      "type": "function"
    },
    {
      "inputs": [
        {
          "internalType": "uint256",
          "name": "",
          "type": "uint256"
        }
      ],
      "name": "products",
      "outputs": [
        {
          "internalType": "uint256",
          "name": "id",
          "type": "uint256"
        },
        {
          "internalType": "string",
          "name": "name",
          "type": "string"
        },
        {
          "internalType": "string",
          "name": "price",
          "type": "string"
        },
        {
          "internalType": "string",
          "name": "description",
          "type": "string"
        },
        {
          "internalType": "string",
          "name": "reqtemp",
          "type": "string"
        },
        {
          "internalType": "string",
          "name": "manufacturing",
          "type": "string"
        },
        {
          "internalType": "uint256",
          "name": "timestamp",
          "type": "uint256"
        }
      ],
      "stateMutability": "view",
      "type": "function"
    },
    {
      "inputs": [
        {
          "internalType": "uint256",
          "name": "",
          "type": "uint256"
        }
      ],
      "name": "products_list",
      "outputs": [
        {
          "internalType": "uint256",
          "name": "id",
          "type": "uint256"
        },
        {
          "internalType": "string",
          "name": "name",
          "type": "string"
        },
        {
          "internalType": "string",
          "name": "price",
          "type": "string"
        },
        {
          "internalType": "string",
          "name": "description",
          "type": "string"
        },
        {
          "internalType": "string",
          "name": "reqtemp",
          "type": "string"
        },
        {
          "internalType": "string",
          "name": "manufacturing",
          "type": "string"
        },
        {
          "internalType": "uint256",
          "name": "timestamp",
          "type": "uint256"
        }
      ],
      "stateMutability": "view",
      "type": "function"
    },
    {
      "inputs": [
        {
          "internalType": "string",
          "name": "name",
          "type": "string"
        }
      ],
      "name": "setWorker",
      "outputs": [],
      "stateMutability": "payable",
      "type": "function"
    },
    {
      "inputs": [
        {
          "internalType": "uint256",
          "name": "",
          "type": "uint256"
        }
      ],
      "name": "workers",
      "outputs": [
        {
          "internalType": "string",
          "name": "name",
          "type": "string"
        },
        {
          "internalType": "uint256",
          "name": "id",
          "type": "uint256"
        },
        {
          "internalType": "uint256",
          "name": "timestamp",
          "type": "uint256"
        }
      ],
      "stateMutability": "view",
      "type": "function"
    },
    {
      "inputs": [
        {
          "internalType": "uint256",
          "name": "",
          "type": "uint256"
        }
      ],
      "name": "workers_list",
      "outputs": [
        {
          "internalType": "string",
          "name": "name",
          "type": "string"
        },
        {
          "internalType": "uint256",
          "name": "id",
          "type": "uint256"
        },
        {
          "internalType": "uint256",
          "name": "timestamp",
          "type": "uint256"
        }
      ],
      "stateMutability": "view",
      "type": "function"
    }
  ],
  "bytecode": "0x60806040526000600155600060025534801561001a57600080fd5b50336000806101000a81548173ffffffffffffffffffffffffffffffffffffffff021916908373ffffffffffffffffffffffffffffffffffffffff1602179055506131638061006a6000396000f3fe6080604052600436106100f35760003560e01c8063876afa611161008a578063c29b2f2011610059578063c29b2f2014610360578063d6d0be9f1461038b578063f1a22dc2146103c8578063f7aed77314610407576100f3565b8063876afa61146102b6578063a2f714fc146102e1578063b20fca60146102fd578063bd347ed714610319576100f3565b80635173bd1e116100c65780635173bd1e146101b457806355ed1a01146101f45780637109ad82146102335780637acc0b2014610273576100f3565b80630ea3d3ee146100f857806313f6b1bb1461013f5780632383a2dd1461017c5780632a4994fc14610198575b600080fd5b34801561010457600080fd5b5061011f600480360381019061011a91906125d0565b61044a565b6040516101369b9a99989796959493929190612c40565b60405180910390f35b34801561014b57600080fd5b50610166600480360381019061016191906125d0565b6106e1565b6040516101739190612bfc565b60405180910390f35b61019660048036038101906101919190612635565b6109f3565b005b6101b260048036038101906101ad9190612365565b610b06565b005b3480156101c057600080fd5b506101db60048036038101906101d691906125f9565b610c25565b6040516101eb9493929190612dd7565b60405180910390f35b34801561020057600080fd5b5061021b600480360381019061021691906125d0565b610c72565b60405161022a93929190612d07565b60405180910390f35b34801561023f57600080fd5b5061025a600480360381019061025591906125d0565b610d34565b60405161026a9493929190612dd7565b60405180910390f35b34801561027f57600080fd5b5061029a600480360381019061029591906125d0565b610d74565b6040516102ad9796959493929190612d45565b60405180910390f35b3480156102c257600080fd5b506102cb61105e565b6040516102d89190612c1e565b60405180910390f35b6102fb60048036038101906102f69190612495565b611163565b005b610317600480360381019061031291906123a6565b6114d6565b005b34801561032557600080fd5b50610340600480360381019061033b91906125f9565b61176d565b6040516103579b9a99989796959493929190612c40565b60405180910390f35b34801561036c57600080fd5b50610375611a10565b6040516103829190612bda565b60405180910390f35b34801561039757600080fd5b506103b260048036038101906103ad91906125d0565b611d5d565b6040516103bf9190612bb8565b60405180910390f35b3480156103d457600080fd5b506103ef60048036038101906103ea91906125d0565b611df7565b6040516103fe93929190612d07565b60405180910390f35b34801561041357600080fd5b5061042e600480360381019061042991906125d0565b611ea9565b6040516104419796959493929190612d45565b60405180910390f35b600b818154811061045a57600080fd5b90600052602060002090600b020160009150905080600001805461047d90612fe6565b80601f01602080910402602001604051908101604052809291908181526020018280546104a990612fe6565b80156104f65780601f106104cb576101008083540402835291602001916104f6565b820191906000526020600020905b8154815290600101906020018083116104d957829003601f168201915b50505050509080600101549080600201805461051190612fe6565b80601f016020809104026020016040519081016040528092919081815260200182805461053d90612fe6565b801561058a5780601f1061055f5761010080835404028352916020019161058a565b820191906000526020600020905b81548152906001019060200180831161056d57829003601f168201915b50505050509080600301805461059f90612fe6565b80601f01602080910402602001604051908101604052809291908181526020018280546105cb90612fe6565b80156106185780601f106105ed57610100808354040283529160200191610618565b820191906000526020600020905b8154815290600101906020018083116105fb57829003601f168201915b50505050509080600401805461062d90612fe6565b80601f016020809104026020016040519081016040528092919081815260200182805461065990612fe6565b80156106a65780601f1061067b576101008083540402835291602001916106a6565b820191906000526020600020905b81548152906001019060200180831161068957829003601f168201915b50505050509080600501549080600601549080600701549080600801549080600901549080600a0160009054906101000a900460ff1690508b565b606060206000838152602001908152602001600020805480602002602001604051908101604052809291908181526020016000905b828210156109e857838290600052602060002090600b02016040518061016001604052908160008201805461074a90612fe6565b80601f016020809104026020016040519081016040528092919081815260200182805461077690612fe6565b80156107c35780601f10610798576101008083540402835291602001916107c3565b820191906000526020600020905b8154815290600101906020018083116107a657829003601f168201915b50505050508152602001600182015481526020016002820180546107e690612fe6565b80601f016020809104026020016040519081016040528092919081815260200182805461081290612fe6565b801561085f5780601f106108345761010080835404028352916020019161085f565b820191906000526020600020905b81548152906001019060200180831161084257829003601f168201915b5050505050815260200160038201805461087890612fe6565b80601f01602080910402602001604051908101604052809291908181526020018280546108a490612fe6565b80156108f15780601f106108c6576101008083540402835291602001916108f1565b820191906000526020600020905b8154815290600101906020018083116108d457829003601f168201915b5050505050815260200160048201805461090a90612fe6565b80601f016020809104026020016040519081016040528092919081815260200182805461093690612fe6565b80156109835780601f1061095857610100808354040283529160200191610983565b820191906000526020600020905b81548152906001019060200180831161096657829003601f168201915b505050505081526020016005820154815260200160068201548152602001600782015481526020016008820154815260200160098201548152602001600a820160009054906101000a900460ff16151515158152505081526020019060010190610716565b505050509050919050565b604051806080016040528085815260200184815260200183815260200182815250601c6000820151816000015560208201518160010155604082015181600201556060820151816003015590505060236000828152602001908152602001600020601c9080600181540180825580915050600190039060005260206000209060040201600090919091909150600082015481600001556001820154816001015560028201548160020155600382015481600301555050601b601c908060018154018082558091505060019003906000526020600020906004020160009091909190915060008201548160000155600182015481600101556002820154816002015560038201548160030155505050505050565b604051806060016040528082815260200160025481526020014281525060186000820151816000019080519060200190610b419291906121a3565b50602082015181600101556040820151816002015590505060186022600060025481526020019081526020016000206000820181600001908054610b8490612fe6565b610b8f929190612229565b5060018201548160010155600282015481600201559050506017601890806001815401808255809150506001900390600052602060002090600302016000909190919091506000820181600001908054610be890612fe6565b610bf3929190612229565b506001820154816001015560028201548160020155505060026000815480929190610c1d90613018565b919050555050565b60236020528160005260406000208181548110610c4157600080fd5b9060005260206000209060040201600091509150508060000154908060010154908060020154908060030154905084565b60178181548110610c8257600080fd5b9060005260206000209060030201600091509050806000018054610ca590612fe6565b80601f0160208091040260200160405190810160405280929190818152602001828054610cd190612fe6565b8015610d1e5780601f10610cf357610100808354040283529160200191610d1e565b820191906000526020600020905b815481529060010190602001808311610d0157829003601f168201915b5050505050908060010154908060020154905083565b601b8181548110610d4457600080fd5b90600052602060002090600402016000915090508060000154908060010154908060020154908060030154905084565b6021602052806000526040600020600091509050806000015490806001018054610d9d90612fe6565b80601f0160208091040260200160405190810160405280929190818152602001828054610dc990612fe6565b8015610e165780601f10610deb57610100808354040283529160200191610e16565b820191906000526020600020905b815481529060010190602001808311610df957829003601f168201915b505050505090806002018054610e2b90612fe6565b80601f0160208091040260200160405190810160405280929190818152602001828054610e5790612fe6565b8015610ea45780601f10610e7957610100808354040283529160200191610ea4565b820191906000526020600020905b815481529060010190602001808311610e8757829003601f168201915b505050505090806003018054610eb990612fe6565b80601f0160208091040260200160405190810160405280929190818152602001828054610ee590612fe6565b8015610f325780601f10610f0757610100808354040283529160200191610f32565b820191906000526020600020905b815481529060010190602001808311610f1557829003601f168201915b505050505090806004018054610f4790612fe6565b80601f0160208091040260200160405190810160405280929190818152602001828054610f7390612fe6565b8015610fc05780601f10610f9557610100808354040283529160200191610fc0565b820191906000526020600020905b815481529060010190602001808311610fa357829003601f168201915b505050505090806005018054610fd590612fe6565b80601f016020809104026020016040519081016040528092919081815260200182805461100190612fe6565b801561104e5780601f106110235761010080835404028352916020019161104e565b820191906000526020600020905b81548152906001019060200180831161103157829003601f168201915b5050505050908060060154905087565b60606017805480602002602001604051908101604052809291908181526020016000905b8282101561115a57838290600052602060002090600302016040518060600160405290816000820180546110b590612fe6565b80601f01602080910402602001604051908101604052809291908181526020018280546110e190612fe6565b801561112e5780601f106111035761010080835404028352916020019161112e565b820191906000526020600020905b81548152906001019060200180831161111157829003601f168201915b505050505081526020016001820154815260200160028201548152505081526020019060010190611082565b50505050905090565b6040518061016001604052808b81526020014281526020018a8152602001898152602001888152602001878152602001868152602001858152602001848152602001838152602001821515815250600c60008201518160000190805190602001906111cf9291906121a3565b506020820151816001015560408201518160020190805190602001906111f69291906121a3565b5060608201518160030190805190602001906112139291906121a3565b5060808201518160040190805190602001906112309291906121a3565b5060a0820151816005015560c0820151816006015560e082015181600701556101008201518160080155610120820151816009015561014082015181600a0160006101000a81548160ff02191690831515021790555090505060206000868152602001908152602001600020600c90806001815401808255809150506001900390600052602060002090600b020160009091909190915060008201816000019080546112db90612fe6565b6112e6929190612229565b5060018201548160010155600282018160020190805461130590612fe6565b611310929190612229565b50600382018160030190805461132590612fe6565b611330929190612229565b50600482018160040190805461134590612fe6565b611350929190612229565b506005820154816005015560068201548160060155600782015481600701556008820154816008015560098201548160090155600a820160009054906101000a900460ff1681600a0160006101000a81548160ff0219169083151502179055505050600b600c90806001815401808255809150506001900390600052602060002090600b020160009091909190915060008201816000019080546113f390612fe6565b6113fe929190612229565b5060018201548160010155600282018160020190805461141d90612fe6565b611428929190612229565b50600382018160030190805461143d90612fe6565b611448929190612229565b50600482018160040190805461145d90612fe6565b611468929190612229565b506005820154816005015560068201548160060155600782015481600701556008820154816008015560098201548160090155600a820160009054906101000a900460ff1681600a0160006101000a81548160ff021916908315150217905550505050505050505050505050565b6040518060e0016040528060015481526020018681526020018581526020018481526020018381526020018281526020014281525060046000820151816000015560208201518160010190805190602001906115339291906121a3565b5060408201518160020190805190602001906115509291906121a3565b50606082015181600301908051906020019061156d9291906121a3565b50608082015181600401908051906020019061158a9291906121a3565b5060a08201518160050190805190602001906115a79291906121a3565b5060c0820151816006015590505060046021600060015481526020019081526020016000206000820154816000015560018201816001019080546115ea90612fe6565b6115f5929190612229565b50600282018160020190805461160a90612fe6565b611615929190612229565b50600382018160030190805461162a90612fe6565b611635929190612229565b50600482018160040190805461164a90612fe6565b611655929190612229565b50600582018160050190805461166a90612fe6565b611675929190612229565b50600682015481600601559050506003600490806001815401808255809150506001900390600052602060002090600702016000909190919091506000820154816000015560018201816001019080546116ce90612fe6565b6116d9929190612229565b5060028201816002019080546116ee90612fe6565b6116f9929190612229565b50600382018160030190805461170e90612fe6565b611719929190612229565b50600482018160040190805461172e90612fe6565b611739929190612229565b50600582018160050190805461174e90612fe6565b611759929190612229565b506006820154816006015550505050505050565b60208052816000526040600020818154811061178857600080fd5b90600052602060002090600b0201600091509150508060000180546117ac90612fe6565b80601f01602080910402602001604051908101604052809291908181526020018280546117d890612fe6565b80156118255780601f106117fa57610100808354040283529160200191611825565b820191906000526020600020905b81548152906001019060200180831161180857829003601f168201915b50505050509080600101549080600201805461184090612fe6565b80601f016020809104026020016040519081016040528092919081815260200182805461186c90612fe6565b80156118b95780601f1061188e576101008083540402835291602001916118b9565b820191906000526020600020905b81548152906001019060200180831161189c57829003601f168201915b5050505050908060030180546118ce90612fe6565b80601f01602080910402602001604051908101604052809291908181526020018280546118fa90612fe6565b80156119475780601f1061191c57610100808354040283529160200191611947565b820191906000526020600020905b81548152906001019060200180831161192a57829003601f168201915b50505050509080600401805461195c90612fe6565b80601f016020809104026020016040519081016040528092919081815260200182805461198890612fe6565b80156119d55780601f106119aa576101008083540402835291602001916119d5565b820191906000526020600020905b8154815290600101906020018083116119b857829003601f168201915b50505050509080600501549080600601549080600701549080600801549080600901549080600a0160009054906101000a900460ff1690508b565b60606003805480602002602001604051908101604052809291908181526020016000905b82821015611d5457838290600052602060002090600702016040518060e001604052908160008201548152602001600182018054611a7190612fe6565b80601f0160208091040260200160405190810160405280929190818152602001828054611a9d90612fe6565b8015611aea5780601f10611abf57610100808354040283529160200191611aea565b820191906000526020600020905b815481529060010190602001808311611acd57829003601f168201915b50505050508152602001600282018054611b0390612fe6565b80601f0160208091040260200160405190810160405280929190818152602001828054611b2f90612fe6565b8015611b7c5780601f10611b5157610100808354040283529160200191611b7c565b820191906000526020600020905b815481529060010190602001808311611b5f57829003601f168201915b50505050508152602001600382018054611b9590612fe6565b80601f0160208091040260200160405190810160405280929190818152602001828054611bc190612fe6565b8015611c0e5780601f10611be357610100808354040283529160200191611c0e565b820191906000526020600020905b815481529060010190602001808311611bf157829003601f168201915b50505050508152602001600482018054611c2790612fe6565b80601f0160208091040260200160405190810160405280929190818152602001828054611c5390612fe6565b8015611ca05780601f10611c7557610100808354040283529160200191611ca0565b820191906000526020600020905b815481529060010190602001808311611c8357829003601f168201915b50505050508152602001600582018054611cb990612fe6565b80601f0160208091040260200160405190810160405280929190818152602001828054611ce590612fe6565b8015611d325780601f10611d0757610100808354040283529160200191611d32565b820191906000526020600020905b815481529060010190602001808311611d1557829003601f168201915b5050505050815260200160068201548152505081526020019060010190611a34565b50505050905090565b606060236000838152602001908152602001600020805480602002602001604051908101604052809291908181526020016000905b82821015611dec578382906000526020600020906004020160405180608001604052908160008201548152602001600182015481526020016002820154815260200160038201548152505081526020019060010190611d92565b505050509050919050565b6022602052806000526040600020600091509050806000018054611e1a90612fe6565b80601f0160208091040260200160405190810160405280929190818152602001828054611e4690612fe6565b8015611e935780601f10611e6857610100808354040283529160200191611e93565b820191906000526020600020905b815481529060010190602001808311611e7657829003601f168201915b5050505050908060010154908060020154905083565b60038181548110611eb957600080fd5b9060005260206000209060070201600091509050806000015490806001018054611ee290612fe6565b80601f0160208091040260200160405190810160405280929190818152602001828054611f0e90612fe6565b8015611f5b5780601f10611f3057610100808354040283529160200191611f5b565b820191906000526020600020905b815481529060010190602001808311611f3e57829003601f168201915b505050505090806002018054611f7090612fe6565b80601f0160208091040260200160405190810160405280929190818152602001828054611f9c90612fe6565b8015611fe95780601f10611fbe57610100808354040283529160200191611fe9565b820191906000526020600020905b815481529060010190602001808311611fcc57829003601f168201915b505050505090806003018054611ffe90612fe6565b80601f016020809104026020016040519081016040528092919081815260200182805461202a90612fe6565b80156120775780601f1061204c57610100808354040283529160200191612077565b820191906000526020600020905b81548152906001019060200180831161205a57829003601f168201915b50505050509080600401805461208c90612fe6565b80601f01602080910402602001604051908101604052809291908181526020018280546120b890612fe6565b80156121055780601f106120da57610100808354040283529160200191612105565b820191906000526020600020905b8154815290600101906020018083116120e857829003601f168201915b50505050509080600501805461211a90612fe6565b80601f016020809104026020016040519081016040528092919081815260200182805461214690612fe6565b80156121935780601f1061216857610100808354040283529160200191612193565b820191906000526020600020905b81548152906001019060200180831161217657829003601f168201915b5050505050908060060154905087565b8280546121af90612fe6565b90600052602060002090601f0160209004810192826121d15760008555612218565b82601f106121ea57805160ff1916838001178555612218565b82800160010185558215612218579182015b828111156122175782518255916020019190600101906121fc565b5b50905061222591906122b6565b5090565b82805461223590612fe6565b90600052602060002090601f01602090048101928261225757600085556122a5565b82601f1061226857805485556122a5565b828001600101855582156122a557600052602060002091601f016020900482015b828111156122a4578254825591600101919060010190612289565b5b5090506122b291906122b6565b5090565b5b808211156122cf5760008160009055506001016122b7565b5090565b60006122e66122e184612e4d565b612e1c565b9050828152602081018484840111156122fe57600080fd5b612309848285612fa4565b509392505050565b600081359050612320816130ff565b92915050565b600082601f83011261233757600080fd5b81356123478482602086016122d3565b91505092915050565b60008135905061235f81613116565b92915050565b60006020828403121561237757600080fd5b600082013567ffffffffffffffff81111561239157600080fd5b61239d84828501612326565b91505092915050565b600080600080600060a086880312156123be57600080fd5b600086013567ffffffffffffffff8111156123d857600080fd5b6123e488828901612326565b955050602086013567ffffffffffffffff81111561240157600080fd5b61240d88828901612326565b945050604086013567ffffffffffffffff81111561242a57600080fd5b61243688828901612326565b935050606086013567ffffffffffffffff81111561245357600080fd5b61245f88828901612326565b925050608086013567ffffffffffffffff81111561247c57600080fd5b61248888828901612326565b9150509295509295909350565b6000806000806000806000806000806101408b8d0312156124b557600080fd5b60008b013567ffffffffffffffff8111156124cf57600080fd5b6124db8d828e01612326565b9a505060208b013567ffffffffffffffff8111156124f857600080fd5b6125048d828e01612326565b99505060408b013567ffffffffffffffff81111561252157600080fd5b61252d8d828e01612326565b98505060608b013567ffffffffffffffff81111561254a57600080fd5b6125568d828e01612326565b97505060806125678d828e01612350565b96505060a06125788d828e01612350565b95505060c06125898d828e01612350565b94505060e061259a8d828e01612350565b9350506101006125ac8d828e01612350565b9250506101206125be8d828e01612311565b9150509295989b9194979a5092959850565b6000602082840312156125e257600080fd5b60006125f084828501612350565b91505092915050565b6000806040838503121561260c57600080fd5b600061261a85828601612350565b925050602061262b85828601612350565b9150509250929050565b6000806000806080858703121561264b57600080fd5b600061265987828801612350565b945050602061266a87828801612350565b935050604061267b87828801612350565b925050606061268c87828801612350565b91505092959194509250565b60006126a48383612939565b60808301905092915050565b60006126bc838361298e565b905092915050565b60006126d08383612a46565b905092915050565b60006126e48383612b4a565b905092915050565b60006126f782612ebd565b6127018185612f28565b935061270c83612e7d565b8060005b8381101561273d5781516127248882612698565b975061272f83612ef4565b925050600181019050612710565b5085935050505092915050565b600061275582612ec8565b61275f8185612f39565b93508360208202850161277185612e8d565b8060005b858110156127ad578484038952815161278e85826126b0565b945061279983612f01565b925060208a01995050600181019050612775565b50829750879550505050505092915050565b60006127ca82612ed3565b6127d48185612f4a565b9350836020820285016127e685612e9d565b8060005b85811015612822578484038952815161280385826126c4565b945061280e83612f0e565b925060208a019950506001810190506127ea565b50829750879550505050505092915050565b600061283f82612ede565b6128498185612f5b565b93508360208202850161285b85612ead565b8060005b85811015612897578484038952815161287885826126d8565b945061288383612f1b565b925060208a0199505060018101905061285f565b50829750879550505050505092915050565b6128b281612f8e565b82525050565b6128c181612f8e565b82525050565b60006128d282612ee9565b6128dc8185612f6c565b93506128ec818560208601612fb3565b6128f5816130ee565b840191505092915050565b600061290b82612ee9565b6129158185612f7d565b9350612925818560208601612fb3565b61292e816130ee565b840191505092915050565b60808201600082015161294f6000850182612b9a565b5060208201516129626020850182612b9a565b5060408201516129756040850182612b9a565b5060608201516129886060850182612b9a565b50505050565b600060e0830160008301516129a66000860182612b9a565b50602083015184820360208601526129be82826128c7565b915050604083015184820360408601526129d882826128c7565b915050606083015184820360608601526129f282826128c7565b91505060808301518482036080860152612a0c82826128c7565b91505060a083015184820360a0860152612a2682826128c7565b91505060c0830151612a3b60c0860182612b9a565b508091505092915050565b6000610160830160008301518482036000860152612a6482826128c7565b9150506020830151612a796020860182612b9a565b5060408301518482036040860152612a9182826128c7565b91505060608301518482036060860152612aab82826128c7565b91505060808301518482036080860152612ac582826128c7565b91505060a0830151612ada60a0860182612b9a565b5060c0830151612aed60c0860182612b9a565b5060e0830151612b0060e0860182612b9a565b50610100830151612b15610100860182612b9a565b50610120830151612b2a610120860182612b9a565b50610140830151612b3f6101408601826128a9565b508091505092915050565b60006060830160008301518482036000860152612b6782826128c7565b9150506020830151612b7c6020860182612b9a565b506040830151612b8f6040860182612b9a565b508091505092915050565b612ba381612f9a565b82525050565b612bb281612f9a565b82525050565b60006020820190508181036000830152612bd281846126ec565b905092915050565b60006020820190508181036000830152612bf4818461274a565b905092915050565b60006020820190508181036000830152612c1681846127bf565b905092915050565b60006020820190508181036000830152612c388184612834565b905092915050565b6000610160820190508181036000830152612c5b818e612900565b9050612c6a602083018d612ba9565b8181036040830152612c7c818c612900565b90508181036060830152612c90818b612900565b90508181036080830152612ca4818a612900565b9050612cb360a0830189612ba9565b612cc060c0830188612ba9565b612ccd60e0830187612ba9565b612cdb610100830186612ba9565b612ce9610120830185612ba9565b612cf76101408301846128b8565b9c9b505050505050505050505050565b60006060820190508181036000830152612d218186612900565b9050612d306020830185612ba9565b612d3d6040830184612ba9565b949350505050565b600060e082019050612d5a600083018a612ba9565b8181036020830152612d6c8189612900565b90508181036040830152612d808188612900565b90508181036060830152612d948187612900565b90508181036080830152612da88186612900565b905081810360a0830152612dbc8185612900565b9050612dcb60c0830184612ba9565b98975050505050505050565b6000608082019050612dec6000830187612ba9565b612df96020830186612ba9565b612e066040830185612ba9565b612e136060830184612ba9565b95945050505050565b6000604051905081810181811067ffffffffffffffff82111715612e4357612e426130bf565b5b8060405250919050565b600067ffffffffffffffff821115612e6857612e676130bf565b5b601f19601f8301169050602081019050919050565b6000819050602082019050919050565b6000819050602082019050919050565b6000819050602082019050919050565b6000819050602082019050919050565b600081519050919050565b600081519050919050565b600081519050919050565b600081519050919050565b600081519050919050565b6000602082019050919050565b6000602082019050919050565b6000602082019050919050565b6000602082019050919050565b600082825260208201905092915050565b600082825260208201905092915050565b600082825260208201905092915050565b600082825260208201905092915050565b600082825260208201905092915050565b600082825260208201905092915050565b60008115159050919050565b6000819050919050565b82818337600083830152505050565b60005b83811015612fd1578082015181840152602081019050612fb6565b83811115612fe0576000848401525b50505050565b60006002820490506001821680612ffe57607f821691505b6020821081141561301257613011613090565b5b50919050565b600061302382612f9a565b91507fffffffffffffffffffffffffffffffffffffffffffffffffffffffffffffffff82141561305657613055613061565b5b600182019050919050565b7f4e487b7100000000000000000000000000000000000000000000000000000000600052601160045260246000fd5b7f4e487b7100000000000000000000000000000000000000000000000000000000600052602260045260246000fd5b7f4e487b7100000000000000000000000000000000000000000000000000000000600052604160045260246000fd5b6000601f19601f8301169050919050565b61310881612f8e565b811461311357600080fd5b50565b61311f81612f9a565b811461312a57600080fd5b5056fea264697066735822122001c0e5d61e8581717a06a53c3764347a1f79b0e5b952c95f57512a87595f759e64736f6c63430008000033",
  "linkReferences": {},
  "deployedLinkReferences": {}
}