{
  "_format": "hh-sol-artifact-1",
  "contractName": "Supplychain",
  "sourceName": "contracts/SupplyChain.sol",
  "abi": [
    {
      "inputs": [],
      "stateMutability": "nonpayable",
      "type": "constructor"
    },
    {
      "inputs": [
        {
          "internalType": "uint256",
          "name": "temp",
          "type": "uint256"
        },
        {
          "internalType": "uint256",
          "name": "humidity",
          "type": "uint256"
        },
        {
          "internalType": "uint256",
          "name": "hindex",
          "type": "uint256"
        },
        {
          "internalType": "uint256",
          "name": "pid",
          "type": "uint256"
        }
      ],
      "name": "AddData",
      "outputs": [],
      "stateMutability": "payable",
      "type": "function"
    },
    {
      "inputs": [
        {
          "internalType": "string",
          "name": "name",
          "type": "string"
        },
        {
          "internalType": "string",
          "name": "price",
          "type": "string"
        },
        {
          "internalType": "string",
          "name": "description",
          "type": "string"
        },
        {
          "internalType": "string",
          "name": "reqtemp",
          "type": "string"
        },
        {
          "internalType": "string",
          "name": "manufacturing",
          "type": "string"
        }
      ],
      "name": "AddProduct",
      "outputs": [],
      "stateMutability": "payable",
      "type": "function"
    },
    {
      "inputs": [
        {
          "internalType": "string",
          "name": "location",
          "type": "string"
        },
        {
          "internalType": "string",
          "name": "temp",
          "type": "string"
        },
        {
          "internalType": "string",
          "name": "humidity",
          "type": "string"
        },
        {
          "internalType": "string",
          "name": "heatindex",
          "type": "string"
        },
        {
          "internalType": "uint256",
          "name": "wid",
          "type": "uint256"
        },
        {
          "internalType": "uint256",
          "name": "pid",
          "type": "uint256"
        },
        {
          "internalType": "uint256",
          "name": "total_quantity",
          "type": "uint256"
        },
        {
          "internalType": "bool",
          "name": "flag",
          "type": "bool"
        }
      ],
      "name": "AddStatus",
      "outputs": [],
      "stateMutability": "payable",
      "type": "function"
    },
    {
      "inputs": [
        {
          "internalType": "uint256",
          "name": "",
          "type": "uint256"
        }
      ],
      "name": "Data_list",
      "outputs": [
        {
          "internalType": "uint256",
          "name": "temp",
          "type": "uint256"
        },
        {
          "internalType": "uint256",
          "name": "humidity",
          "type": "uint256"
        },
        {
          "internalType": "uint256",
          "name": "hindex",
          "type": "uint256"
        },
        {
          "internalType": "uint256",
          "name": "pid",
          "type": "uint256"
        }
      ],
      "stateMutability": "view",
      "type": "function"
    },
    {
      "inputs": [
        {
          "internalType": "uint256",
          "name": "",
          "type": "uint256"
        },
        {
          "internalType": "uint256",
          "name": "",
          "type": "uint256"
        }
      ],
      "name": "data",
      "outputs": [
        {
          "internalType": "uint256",
          "name": "temp",
          "type": "uint256"
        },
        {
          "internalType": "uint256",
          "name": "humidity",
          "type": "uint256"
        },
        {
          "internalType": "uint256",
          "name": "hindex",
          "type": "uint256"
        },
        {
          "internalType": "uint256",
          "name": "pid",
          "type": "uint256"
        }
      ],
      "stateMutability": "view",
      "type": "function"
    },
    {
      "inputs": [
        {
          "internalType": "uint256",
          "name": "id",
          "type": "uint256"
        }
      ],
      "name": "getProductData",
      "outputs": [
        {
          "components": [
            {
              "internalType": "uint256",
              "name": "temp",
              "type": "uint256"
            },
            {
              "internalType": "uint256",
              "name": "humidity",
              "type": "uint256"
            },
            {
              "internalType": "uint256",
              "name": "hindex",
              "type": "uint256"
            },
            {
              "internalType": "uint256",
              "name": "pid",
              "type": "uint256"
            }
          ],
          "internalType": "struct Supplychain.Data[]",
          "name": "",
          "type": "tuple[]"
        }
      ],
      "stateMutability": "view",
      "type": "function"
    },
    {
      "inputs": [
        {
          "internalType": "uint256",
          "name": "id",
          "type": "uint256"
        }
      ],
      "name": "getProductStatus",
      "outputs": [
        {
          "components": [
            {
              "internalType": "string",
              "name": "location",
              "type": "string"
            },
            {
              "internalType": "uint256",
              "name": "timestamp",
              "type": "uint256"
            },
            {
              "internalType": "string",
              "name": "temp",
              "type": "string"
            },
            {
              "internalType": "string",
              "name": "humidity",
              "type": "string"
            },
            {
              "internalType": "string",
              "name": "heatindex",
              "type": "string"
            },
            {
              "internalType": "uint256",
              "name": "w_id",
              "type": "uint256"
            },
            {
              "internalType": "uint256",
              "name": "p_id",
              "type": "uint256"
            },
            {
              "internalType": "uint256",
              "name": "total_quantity",
              "type": "uint256"
            },
            {
              "internalType": "bool",
              "name": "flag",
              "type": "bool"
            }
          ],
          "internalType": "struct Supplychain.Status[]",
          "name": "",
          "type": "tuple[]"
        }
      ],
      "stateMutability": "view",
      "type": "function"
    },
    {
      "inputs": [],
      "name": "getProducts",
      "outputs": [
        {
          "components": [
            {
              "internalType": "uint256",
              "name": "id",
              "type": "uint256"
            },
            {
              "internalType": "string",
              "name": "name",
              "type": "string"
            },
            {
              "internalType": "string",
              "name": "price",
              "type": "string"
            },
            {
              "internalType": "string",
              "name": "description",
              "type": "string"
            },
            {
              "internalType": "string",
              "name": "reqtemp",
              "type": "string"
            },
            {
              "internalType": "string",
              "name": "manufacturing",
              "type": "string"
            },
            {
              "internalType": "uint256",
              "name": "timestamp",
              "type": "uint256"
            }
          ],
          "internalType": "struct Supplychain.Product[]",
          "name": "",
          "type": "tuple[]"
        }
      ],
      "stateMutability": "view",
      "type": "function"
    },
    {
      "inputs": [],
      "name": "getWorkerssList",
      "outputs": [
        {
          "components": [
            {
              "internalType": "string",
              "name": "name",
              "type": "string"
            },
            {
              "internalType": "uint256",
              "name": "id",
              "type": "uint256"
            },
            {
              "internalType": "uint256",
              "name": "timestamp",
              "type": "uint256"
            }
          ],
          "internalType": "struct Supplychain.Worker[]",
          "name": "",
          "type": "tuple[]"
        }
      ],
      "stateMutability": "view",
      "type": "function"
    },
    {
      "inputs": [
        {
          "internalType": "uint256",
          "name": "",
          "type": "uint256"
        }
      ],
      "name": "productStatus",
      "outputs": [
        {
          "internalType": "string",
          "name": "location",
          "type": "string"
        },
        {
          "internalType": "uint256",
          "name": "timestamp",
          "type": "uint256"
        },
        {
          "internalType": "string",
          "name": "temp",
          "type": "string"
        },
        {
          "internalType": "string",
          "name": "humidity",
          "type": "string"
        },
        {
          "internalType": "string",
          "name": "heatindex",
          "type": "string"
        },
        {
          "internalType": "uint256",
          "name": "w_id",
          "type": "uint256"
        },
        {
          "internalType": "uint256",
          "name": "p_id",
          "type": "uint256"
        },
        {
          "internalType": "uint256",
          "name": "total_quantity",
          "type": "uint256"
        },
        {
          "internalType": "bool",
          "name": "flag",
          "type": "bool"
        }
      ],
      "stateMutability": "view",
      "type": "function"
    },
    {
      "inputs": [
        {
          "internalType": "uint256",
          "name": "",
          "type": "uint256"
        },
        {
          "internalType": "uint256",
          "name": "",
          "type": "uint256"
        }
      ],
      "name": "product_Status",
      "outputs": [
        {
          "internalType": "string",
          "name": "location",
          "type": "string"
        },
        {
          "internalType": "uint256",
          "name": "timestamp",
          "type": "uint256"
        },
        {
          "internalType": "string",
          "name": "temp",
          "type": "string"
        },
        {
          "internalType": "string",
          "name": "humidity",
          "type": "string"
        },
        {
          "internalType": "string",
          "name": "heatindex",
          "type": "string"
        },
        {
          "internalType": "uint256",
          "name": "w_id",
          "type": "uint256"
        },
        {
          "internalType": "uint256",
          "name": "p_id",
          "type": "uint256"
        },
        {
          "internalType": "uint256",
          "name": "total_quantity",
          "type": "uint256"
        },
        {
          "internalType": "bool",
          "name": "flag",
          "type": "bool"
        }
      ],
      "stateMutability": "view",
      "type": "function"
    },
    {
      "inputs": [
        {
          "internalType": "uint256",
          "name": "",
          "type": "uint256"
        }
      ],
      "name": "products",
      "outputs": [
        {
          "internalType": "uint256",
          "name": "id",
          "type": "uint256"
        },
        {
          "internalType": "string",
          "name": "name",
          "type": "string"
        },
        {
          "internalType": "string",
          "name": "price",
          "type": "string"
        },
        {
          "internalType": "string",
          "name": "description",
          "type": "string"
        },
        {
          "internalType": "string",
          "name": "reqtemp",
          "type": "string"
        },
        {
          "internalType": "string",
          "name": "manufacturing",
          "type": "string"
        },
        {
          "internalType": "uint256",
          "name": "timestamp",
          "type": "uint256"
        }
      ],
      "stateMutability": "view",
      "type": "function"
    },
    {
      "inputs": [
        {
          "internalType": "uint256",
          "name": "",
          "type": "uint256"
        }
      ],
      "name": "products_list",
      "outputs": [
        {
          "internalType": "uint256",
          "name": "id",
          "type": "uint256"
        },
        {
          "internalType": "string",
          "name": "name",
          "type": "string"
        },
        {
          "internalType": "string",
          "name": "price",
          "type": "string"
        },
        {
          "internalType": "string",
          "name": "description",
          "type": "string"
        },
        {
          "internalType": "string",
          "name": "reqtemp",
          "type": "string"
        },
        {
          "internalType": "string",
          "name": "manufacturing",
          "type": "string"
        },
        {
          "internalType": "uint256",
          "name": "timestamp",
          "type": "uint256"
        }
      ],
      "stateMutability": "view",
      "type": "function"
    },
    {
      "inputs": [
        {
          "internalType": "string",
          "name": "name",
          "type": "string"
        }
      ],
      "name": "setWorker",
      "outputs": [],
      "stateMutability": "payable",
      "type": "function"
    },
    {
      "inputs": [
        {
          "internalType": "uint256",
          "name": "",
          "type": "uint256"
        }
      ],
      "name": "workers",
      "outputs": [
        {
          "internalType": "string",
          "name": "name",
          "type": "string"
        },
        {
          "internalType": "uint256",
          "name": "id",
          "type": "uint256"
        },
        {
          "internalType": "uint256",
          "name": "timestamp",
          "type": "uint256"
        }
      ],
      "stateMutability": "view",
      "type": "function"
    },
    {
      "inputs": [
        {
          "internalType": "uint256",
          "name": "",
          "type": "uint256"
        }
      ],
      "name": "workers_list",
      "outputs": [
        {
          "internalType": "string",
          "name": "name",
          "type": "string"
        },
        {
          "internalType": "uint256",
          "name": "id",
          "type": "uint256"
        },
        {
          "internalType": "uint256",
          "name": "timestamp",
          "type": "uint256"
        }
      ],
      "stateMutability": "view",
      "type": "function"
    }
  ],
  "bytecode": "0x60806040526000600155600060025534801561001a57600080fd5b50336000806101000a81548173ffffffffffffffffffffffffffffffffffffffff021916908373ffffffffffffffffffffffffffffffffffffffff16021790555061308e8061006a6000396000f3fe6080604052600436106100f35760003560e01c8063876afa611161008a578063d6d0be9f11610059578063d6d0be9f1461036b578063eeb21a3b146103a8578063f1a22dc2146103c4578063f7aed77314610403576100f3565b8063876afa61146102b4578063b20fca60146102df578063bd347ed7146102fb578063c29b2f2014610340576100f3565b80635173bd1e116100c65780635173bd1e146101b257806355ed1a01146101f25780637109ad82146102315780637acc0b2014610271576100f3565b80630ea3d3ee146100f857806313f6b1bb1461013d5780632383a2dd1461017a5780632a4994fc14610196575b600080fd5b34801561010457600080fd5b5061011f600480360381019061011a9190612543565b610446565b60405161013499989796959493929190612b89565b60405180910390f35b34801561014957600080fd5b50610164600480360381019061015f9190612543565b6106d1565b6040516101719190612b45565b60405180910390f35b610194600480360381019061018f91906125a8565b6109cf565b005b6101b060048036038101906101ab9190612301565b610ae2565b005b3480156101be57600080fd5b506101d960048036038101906101d4919061256c565b610c01565b6040516101e99493929190612d02565b60405180910390f35b3480156101fe57600080fd5b5061021960048036038101906102149190612543565b610c4e565b60405161022893929190612c32565b60405180910390f35b34801561023d57600080fd5b5061025860048036038101906102539190612543565b610d10565b6040516102689493929190612d02565b60405180910390f35b34801561027d57600080fd5b5061029860048036038101906102939190612543565b610d50565b6040516102ab9796959493929190612c70565b60405180910390f35b3480156102c057600080fd5b506102c961103a565b6040516102d69190612b67565b60405180910390f35b6102f960048036038101906102f49190612342565b61113f565b005b34801561030757600080fd5b50610322600480360381019061031d919061256c565b6113ee565b60405161033799989796959493929190612b89565b60405180910390f35b34801561034c57600080fd5b50610355611686565b6040516103629190612b23565b60405180910390f35b34801561037757600080fd5b50610392600480360381019061038d9190612543565b6119d3565b60405161039f9190612b01565b60405180910390f35b6103c260048036038101906103bd9190612431565b611a6d565b005b3480156103d057600080fd5b506103eb60048036038101906103e69190612543565b611d94565b6040516103fa93929190612c32565b60405180910390f35b34801561040f57600080fd5b5061042a60048036038101906104259190612543565b611e45565b60405161043d9796959493929190612c70565b60405180910390f35b600b818154811061045657600080fd5b906000526020600020906009020160009150905080600001805461047990612f11565b80601f01602080910402602001604051908101604052809291908181526020018280546104a590612f11565b80156104f25780601f106104c7576101008083540402835291602001916104f2565b820191906000526020600020905b8154815290600101906020018083116104d557829003601f168201915b50505050509080600101549080600201805461050d90612f11565b80601f016020809104026020016040519081016040528092919081815260200182805461053990612f11565b80156105865780601f1061055b57610100808354040283529160200191610586565b820191906000526020600020905b81548152906001019060200180831161056957829003601f168201915b50505050509080600301805461059b90612f11565b80601f01602080910402602001604051908101604052809291908181526020018280546105c790612f11565b80156106145780601f106105e957610100808354040283529160200191610614565b820191906000526020600020905b8154815290600101906020018083116105f757829003601f168201915b50505050509080600401805461062990612f11565b80601f016020809104026020016040519081016040528092919081815260200182805461065590612f11565b80156106a25780601f10610677576101008083540402835291602001916106a2565b820191906000526020600020905b81548152906001019060200180831161068557829003601f168201915b5050505050908060050154908060060154908060070154908060080160009054906101000a900460ff16905089565b6060601e6000838152602001908152602001600020805480602002602001604051908101604052809291908181526020016000905b828210156109c457838290600052602060002090600902016040518061012001604052908160008201805461073a90612f11565b80601f016020809104026020016040519081016040528092919081815260200182805461076690612f11565b80156107b35780601f10610788576101008083540402835291602001916107b3565b820191906000526020600020905b81548152906001019060200180831161079657829003601f168201915b50505050508152602001600182015481526020016002820180546107d690612f11565b80601f016020809104026020016040519081016040528092919081815260200182805461080290612f11565b801561084f5780601f106108245761010080835404028352916020019161084f565b820191906000526020600020905b81548152906001019060200180831161083257829003601f168201915b5050505050815260200160038201805461086890612f11565b80601f016020809104026020016040519081016040528092919081815260200182805461089490612f11565b80156108e15780601f106108b6576101008083540402835291602001916108e1565b820191906000526020600020905b8154815290600101906020018083116108c457829003601f168201915b505050505081526020016004820180546108fa90612f11565b80601f016020809104026020016040519081016040528092919081815260200182805461092690612f11565b80156109735780601f1061094857610100808354040283529160200191610973565b820191906000526020600020905b81548152906001019060200180831161095657829003601f168201915b505050505081526020016005820154815260200160068201548152602001600782015481526020016008820160009054906101000a900460ff16151515158152505081526020019060010190610706565b505050509050919050565b604051806080016040528085815260200184815260200183815260200182815250601a6000820151816000015560208201518160010155604082015181600201556060820151816003015590505060216000828152602001908152602001600020601a90806001815401808255809150506001900390600052602060002090600402016000909190919091506000820154816000015560018201548160010155600282015481600201556003820154816003015550506019601a908060018154018082558091505060019003906000526020600020906004020160009091909190915060008201548160000155600182015481600101556002820154816002015560038201548160030155505050505050565b604051806060016040528082815260200160025481526020014281525060166000820151816000019080519060200190610b1d92919061213f565b50602082015181600101556040820151816002015590505060166020600060025481526020019081526020016000206000820181600001908054610b6090612f11565b610b6b9291906121c5565b5060018201548160010155600282015481600201559050506015601690806001815401808255809150506001900390600052602060002090600302016000909190919091506000820181600001908054610bc490612f11565b610bcf9291906121c5565b506001820154816001015560028201548160020155505060026000815480929190610bf990612f43565b919050555050565b60216020528160005260406000208181548110610c1d57600080fd5b9060005260206000209060040201600091509150508060000154908060010154908060020154908060030154905084565b60158181548110610c5e57600080fd5b9060005260206000209060030201600091509050806000018054610c8190612f11565b80601f0160208091040260200160405190810160405280929190818152602001828054610cad90612f11565b8015610cfa5780601f10610ccf57610100808354040283529160200191610cfa565b820191906000526020600020905b815481529060010190602001808311610cdd57829003601f168201915b5050505050908060010154908060020154905083565b60198181548110610d2057600080fd5b90600052602060002090600402016000915090508060000154908060010154908060020154908060030154905084565b601f602052806000526040600020600091509050806000015490806001018054610d7990612f11565b80601f0160208091040260200160405190810160405280929190818152602001828054610da590612f11565b8015610df25780601f10610dc757610100808354040283529160200191610df2565b820191906000526020600020905b815481529060010190602001808311610dd557829003601f168201915b505050505090806002018054610e0790612f11565b80601f0160208091040260200160405190810160405280929190818152602001828054610e3390612f11565b8015610e805780601f10610e5557610100808354040283529160200191610e80565b820191906000526020600020905b815481529060010190602001808311610e6357829003601f168201915b505050505090806003018054610e9590612f11565b80601f0160208091040260200160405190810160405280929190818152602001828054610ec190612f11565b8015610f0e5780601f10610ee357610100808354040283529160200191610f0e565b820191906000526020600020905b815481529060010190602001808311610ef157829003601f168201915b505050505090806004018054610f2390612f11565b80601f0160208091040260200160405190810160405280929190818152602001828054610f4f90612f11565b8015610f9c5780601f10610f7157610100808354040283529160200191610f9c565b820191906000526020600020905b815481529060010190602001808311610f7f57829003601f168201915b505050505090806005018054610fb190612f11565b80601f0160208091040260200160405190810160405280929190818152602001828054610fdd90612f11565b801561102a5780601f10610fff5761010080835404028352916020019161102a565b820191906000526020600020905b81548152906001019060200180831161100d57829003601f168201915b5050505050908060060154905087565b60606015805480602002602001604051908101604052809291908181526020016000905b82821015611136578382906000526020600020906003020160405180606001604052908160008201805461109190612f11565b80601f01602080910402602001604051908101604052809291908181526020018280546110bd90612f11565b801561110a5780601f106110df5761010080835404028352916020019161110a565b820191906000526020600020905b8154815290600101906020018083116110ed57829003601f168201915b50505050508152602001600182015481526020016002820154815250508152602001906001019061105e565b50505050905090565b6040518060e00160405280600154815260200186815260200185815260200184815260200183815260200182815260200142815250600460008201518160000155602082015181600101908051906020019061119c92919061213f565b5060408201518160020190805190602001906111b992919061213f565b5060608201518160030190805190602001906111d692919061213f565b5060808201518160040190805190602001906111f392919061213f565b5060a082015181600501908051906020019061121092919061213f565b5060c082015181600601559050506004601f6000600154815260200190815260200160002060008201548160000155600182018160010190805461125390612f11565b61125e9291906121c5565b50600282018160020190805461127390612f11565b61127e9291906121c5565b50600382018160030190805461129390612f11565b61129e9291906121c5565b5060048201816004019080546112b390612f11565b6112be9291906121c5565b5060058201816005019080546112d390612f11565b6112de9291906121c5565b506006820154816006015590505060036004908060018154018082558091505060019003906000526020600020906007020160009091909190915060008201548160000155600182018160010190805461133790612f11565b6113429291906121c5565b50600282018160020190805461135790612f11565b6113629291906121c5565b50600382018160030190805461137790612f11565b6113829291906121c5565b50600482018160040190805461139790612f11565b6113a29291906121c5565b5060058201816005019080546113b790612f11565b6113c29291906121c5565b50600682015481600601555050600160008154809291906113e290612f43565b91905055505050505050565b601e602052816000526040600020818154811061140a57600080fd5b90600052602060002090600902016000915091505080600001805461142e90612f11565b80601f016020809104026020016040519081016040528092919081815260200182805461145a90612f11565b80156114a75780601f1061147c576101008083540402835291602001916114a7565b820191906000526020600020905b81548152906001019060200180831161148a57829003601f168201915b5050505050908060010154908060020180546114c290612f11565b80601f01602080910402602001604051908101604052809291908181526020018280546114ee90612f11565b801561153b5780601f106115105761010080835404028352916020019161153b565b820191906000526020600020905b81548152906001019060200180831161151e57829003601f168201915b50505050509080600301805461155090612f11565b80601f016020809104026020016040519081016040528092919081815260200182805461157c90612f11565b80156115c95780601f1061159e576101008083540402835291602001916115c9565b820191906000526020600020905b8154815290600101906020018083116115ac57829003601f168201915b5050505050908060040180546115de90612f11565b80601f016020809104026020016040519081016040528092919081815260200182805461160a90612f11565b80156116575780601f1061162c57610100808354040283529160200191611657565b820191906000526020600020905b81548152906001019060200180831161163a57829003601f168201915b5050505050908060050154908060060154908060070154908060080160009054906101000a900460ff16905089565b60606003805480602002602001604051908101604052809291908181526020016000905b828210156119ca57838290600052602060002090600702016040518060e0016040529081600082015481526020016001820180546116e790612f11565b80601f016020809104026020016040519081016040528092919081815260200182805461171390612f11565b80156117605780601f1061173557610100808354040283529160200191611760565b820191906000526020600020905b81548152906001019060200180831161174357829003601f168201915b5050505050815260200160028201805461177990612f11565b80601f01602080910402602001604051908101604052809291908181526020018280546117a590612f11565b80156117f25780601f106117c7576101008083540402835291602001916117f2565b820191906000526020600020905b8154815290600101906020018083116117d557829003601f168201915b5050505050815260200160038201805461180b90612f11565b80601f016020809104026020016040519081016040528092919081815260200182805461183790612f11565b80156118845780601f1061185957610100808354040283529160200191611884565b820191906000526020600020905b81548152906001019060200180831161186757829003601f168201915b5050505050815260200160048201805461189d90612f11565b80601f01602080910402602001604051908101604052809291908181526020018280546118c990612f11565b80156119165780601f106118eb57610100808354040283529160200191611916565b820191906000526020600020905b8154815290600101906020018083116118f957829003601f168201915b5050505050815260200160058201805461192f90612f11565b80601f016020809104026020016040519081016040528092919081815260200182805461195b90612f11565b80156119a85780601f1061197d576101008083540402835291602001916119a8565b820191906000526020600020905b81548152906001019060200180831161198b57829003601f168201915b50505050508152602001600682015481525050815260200190600101906116aa565b50505050905090565b606060216000838152602001908152602001600020805480602002602001604051908101604052809291908181526020016000905b82821015611a62578382906000526020600020906004020160405180608001604052908160008201548152602001600182015481526020016002820154815260200160038201548152505081526020019060010190611a08565b505050509050919050565b604051806101200160405280898152602001428152602001888152602001878152602001868152602001858152602001848152602001838152602001821515815250600c6000820151816000019080519060200190611acd92919061213f565b50602082015181600101556040820151816002019080519060200190611af492919061213f565b506060820151816003019080519060200190611b1192919061213f565b506080820151816004019080519060200190611b2e92919061213f565b5060a0820151816005015560c0820151816006015560e082015181600701556101008201518160080160006101000a81548160ff021916908315150217905550905050601e6000848152602001908152602001600020600c90806001815401808255809150506001900390600052602060002090600902016000909190919091506000820181600001908054611bc390612f11565b611bce9291906121c5565b50600182015481600101556002820181600201908054611bed90612f11565b611bf89291906121c5565b506003820181600301908054611c0d90612f11565b611c189291906121c5565b506004820181600401908054611c2d90612f11565b611c389291906121c5565b506005820154816005015560068201548160060155600782015481600701556008820160009054906101000a900460ff168160080160006101000a81548160ff0219169083151502179055505050600b600c90806001815401808255809150506001900390600052602060002090600902016000909190919091506000820181600001908054611cc790612f11565b611cd29291906121c5565b50600182015481600101556002820181600201908054611cf190612f11565b611cfc9291906121c5565b506003820181600301908054611d1190612f11565b611d1c9291906121c5565b506004820181600401908054611d3190612f11565b611d3c9291906121c5565b506005820154816005015560068201548160060155600782015481600701556008820160009054906101000a900460ff168160080160006101000a81548160ff02191690831515021790555050505050505050505050565b60208052806000526040600020600091509050806000018054611db690612f11565b80601f0160208091040260200160405190810160405280929190818152602001828054611de290612f11565b8015611e2f5780601f10611e0457610100808354040283529160200191611e2f565b820191906000526020600020905b815481529060010190602001808311611e1257829003601f168201915b5050505050908060010154908060020154905083565b60038181548110611e5557600080fd5b9060005260206000209060070201600091509050806000015490806001018054611e7e90612f11565b80601f0160208091040260200160405190810160405280929190818152602001828054611eaa90612f11565b8015611ef75780601f10611ecc57610100808354040283529160200191611ef7565b820191906000526020600020905b815481529060010190602001808311611eda57829003601f168201915b505050505090806002018054611f0c90612f11565b80601f0160208091040260200160405190810160405280929190818152602001828054611f3890612f11565b8015611f855780601f10611f5a57610100808354040283529160200191611f85565b820191906000526020600020905b815481529060010190602001808311611f6857829003601f168201915b505050505090806003018054611f9a90612f11565b80601f0160208091040260200160405190810160405280929190818152602001828054611fc690612f11565b80156120135780601f10611fe857610100808354040283529160200191612013565b820191906000526020600020905b815481529060010190602001808311611ff657829003601f168201915b50505050509080600401805461202890612f11565b80601f016020809104026020016040519081016040528092919081815260200182805461205490612f11565b80156120a15780601f10612076576101008083540402835291602001916120a1565b820191906000526020600020905b81548152906001019060200180831161208457829003601f168201915b5050505050908060050180546120b690612f11565b80601f01602080910402602001604051908101604052809291908181526020018280546120e290612f11565b801561212f5780601f106121045761010080835404028352916020019161212f565b820191906000526020600020905b81548152906001019060200180831161211257829003601f168201915b5050505050908060060154905087565b82805461214b90612f11565b90600052602060002090601f01602090048101928261216d57600085556121b4565b82601f1061218657805160ff19168380011785556121b4565b828001600101855582156121b4579182015b828111156121b3578251825591602001919060010190612198565b5b5090506121c19190612252565b5090565b8280546121d190612f11565b90600052602060002090601f0160209004810192826121f35760008555612241565b82601f106122045780548555612241565b8280016001018555821561224157600052602060002091601f016020900482015b82811115612240578254825591600101919060010190612225565b5b50905061224e9190612252565b5090565b5b8082111561226b576000816000905550600101612253565b5090565b600061228261227d84612d78565b612d47565b90508281526020810184848401111561229a57600080fd5b6122a5848285612ecf565b509392505050565b6000813590506122bc8161302a565b92915050565b600082601f8301126122d357600080fd5b81356122e384826020860161226f565b91505092915050565b6000813590506122fb81613041565b92915050565b60006020828403121561231357600080fd5b600082013567ffffffffffffffff81111561232d57600080fd5b612339848285016122c2565b91505092915050565b600080600080600060a0868803121561235a57600080fd5b600086013567ffffffffffffffff81111561237457600080fd5b612380888289016122c2565b955050602086013567ffffffffffffffff81111561239d57600080fd5b6123a9888289016122c2565b945050604086013567ffffffffffffffff8111156123c657600080fd5b6123d2888289016122c2565b935050606086013567ffffffffffffffff8111156123ef57600080fd5b6123fb888289016122c2565b925050608086013567ffffffffffffffff81111561241857600080fd5b612424888289016122c2565b9150509295509295909350565b600080600080600080600080610100898b03121561244e57600080fd5b600089013567ffffffffffffffff81111561246857600080fd5b6124748b828c016122c2565b985050602089013567ffffffffffffffff81111561249157600080fd5b61249d8b828c016122c2565b975050604089013567ffffffffffffffff8111156124ba57600080fd5b6124c68b828c016122c2565b965050606089013567ffffffffffffffff8111156124e357600080fd5b6124ef8b828c016122c2565b95505060806125008b828c016122ec565b94505060a06125118b828c016122ec565b93505060c06125228b828c016122ec565b92505060e06125338b828c016122ad565b9150509295985092959890939650565b60006020828403121561255557600080fd5b6000612563848285016122ec565b91505092915050565b6000806040838503121561257f57600080fd5b600061258d858286016122ec565b925050602061259e858286016122ec565b9150509250929050565b600080600080608085870312156125be57600080fd5b60006125cc878288016122ec565b94505060206125dd878288016122ec565b93505060406125ee878288016122ec565b92505060606125ff878288016122ec565b91505092959194509250565b600061261783836128ac565b60808301905092915050565b600061262f8383612901565b905092915050565b600061264383836129b9565b905092915050565b60006126578383612a93565b905092915050565b600061266a82612de8565b6126748185612e53565b935061267f83612da8565b8060005b838110156126b0578151612697888261260b565b97506126a283612e1f565b925050600181019050612683565b5085935050505092915050565b60006126c882612df3565b6126d28185612e64565b9350836020820285016126e485612db8565b8060005b8581101561272057848403895281516127018582612623565b945061270c83612e2c565b925060208a019950506001810190506126e8565b50829750879550505050505092915050565b600061273d82612dfe565b6127478185612e75565b93508360208202850161275985612dc8565b8060005b8581101561279557848403895281516127768582612637565b945061278183612e39565b925060208a0199505060018101905061275d565b50829750879550505050505092915050565b60006127b282612e09565b6127bc8185612e86565b9350836020820285016127ce85612dd8565b8060005b8581101561280a57848403895281516127eb858261264b565b94506127f683612e46565b925060208a019950506001810190506127d2565b50829750879550505050505092915050565b61282581612eb9565b82525050565b61283481612eb9565b82525050565b600061284582612e14565b61284f8185612e97565b935061285f818560208601612ede565b61286881613019565b840191505092915050565b600061287e82612e14565b6128888185612ea8565b9350612898818560208601612ede565b6128a181613019565b840191505092915050565b6080820160008201516128c26000850182612ae3565b5060208201516128d56020850182612ae3565b5060408201516128e86040850182612ae3565b5060608201516128fb6060850182612ae3565b50505050565b600060e0830160008301516129196000860182612ae3565b5060208301518482036020860152612931828261283a565b9150506040830151848203604086015261294b828261283a565b91505060608301518482036060860152612965828261283a565b9150506080830151848203608086015261297f828261283a565b91505060a083015184820360a0860152612999828261283a565b91505060c08301516129ae60c0860182612ae3565b508091505092915050565b60006101208301600083015184820360008601526129d7828261283a565b91505060208301516129ec6020860182612ae3565b5060408301518482036040860152612a04828261283a565b91505060608301518482036060860152612a1e828261283a565b91505060808301518482036080860152612a38828261283a565b91505060a0830151612a4d60a0860182612ae3565b5060c0830151612a6060c0860182612ae3565b5060e0830151612a7360e0860182612ae3565b50610100830151612a8861010086018261281c565b508091505092915050565b60006060830160008301518482036000860152612ab0828261283a565b9150506020830151612ac56020860182612ae3565b506040830151612ad86040860182612ae3565b508091505092915050565b612aec81612ec5565b82525050565b612afb81612ec5565b82525050565b60006020820190508181036000830152612b1b818461265f565b905092915050565b60006020820190508181036000830152612b3d81846126bd565b905092915050565b60006020820190508181036000830152612b5f8184612732565b905092915050565b60006020820190508181036000830152612b8181846127a7565b905092915050565b6000610120820190508181036000830152612ba4818c612873565b9050612bb3602083018b612af2565b8181036040830152612bc5818a612873565b90508181036060830152612bd98189612873565b90508181036080830152612bed8188612873565b9050612bfc60a0830187612af2565b612c0960c0830186612af2565b612c1660e0830185612af2565b612c2461010083018461282b565b9a9950505050505050505050565b60006060820190508181036000830152612c4c8186612873565b9050612c5b6020830185612af2565b612c686040830184612af2565b949350505050565b600060e082019050612c85600083018a612af2565b8181036020830152612c978189612873565b90508181036040830152612cab8188612873565b90508181036060830152612cbf8187612873565b90508181036080830152612cd38186612873565b905081810360a0830152612ce78185612873565b9050612cf660c0830184612af2565b98975050505050505050565b6000608082019050612d176000830187612af2565b612d246020830186612af2565b612d316040830185612af2565b612d3e6060830184612af2565b95945050505050565b6000604051905081810181811067ffffffffffffffff82111715612d6e57612d6d612fea565b5b8060405250919050565b600067ffffffffffffffff821115612d9357612d92612fea565b5b601f19601f8301169050602081019050919050565b6000819050602082019050919050565b6000819050602082019050919050565b6000819050602082019050919050565b6000819050602082019050919050565b600081519050919050565b600081519050919050565b600081519050919050565b600081519050919050565b600081519050919050565b6000602082019050919050565b6000602082019050919050565b6000602082019050919050565b6000602082019050919050565b600082825260208201905092915050565b600082825260208201905092915050565b600082825260208201905092915050565b600082825260208201905092915050565b600082825260208201905092915050565b600082825260208201905092915050565b60008115159050919050565b6000819050919050565b82818337600083830152505050565b60005b83811015612efc578082015181840152602081019050612ee1565b83811115612f0b576000848401525b50505050565b60006002820490506001821680612f2957607f821691505b60208210811415612f3d57612f3c612fbb565b5b50919050565b6000612f4e82612ec5565b91507fffffffffffffffffffffffffffffffffffffffffffffffffffffffffffffffff821415612f8157612f80612f8c565b5b600182019050919050565b7f4e487b7100000000000000000000000000000000000000000000000000000000600052601160045260246000fd5b7f4e487b7100000000000000000000000000000000000000000000000000000000600052602260045260246000fd5b7f4e487b7100000000000000000000000000000000000000000000000000000000600052604160045260246000fd5b6000601f19601f8301169050919050565b61303381612eb9565b811461303e57600080fd5b50565b61304a81612ec5565b811461305557600080fd5b5056fea2646970667358221220c6db08c061d1c79fbbc7b6727c59ac484a98020d4ad5095d5f49591fc0bdd08b64736f6c63430008000033",
  "linkReferences": {},
  "deployedLinkReferences": {}
}