{
  "_format": "hh-sol-artifact-1",
  "contractName": "Supplychain",
  "sourceName": "contracts/SupplyChain.sol",
  "abi": [
    {
      "inputs": [],
      "stateMutability": "nonpayable",
      "type": "constructor"
    },
    {
      "inputs": [
        {
          "internalType": "string",
          "name": "name",
          "type": "string"
        },
        {
          "internalType": "string",
          "name": "price",
          "type": "string"
        },
        {
          "internalType": "string",
          "name": "description",
          "type": "string"
        },
        {
          "internalType": "string",
          "name": "reqtemp",
          "type": "string"
        },
        {
          "internalType": "string",
          "name": "manufacturing",
          "type": "string"
        }
      ],
      "name": "AddProduct",
      "outputs": [],
      "stateMutability": "payable",
      "type": "function"
    },
    {
      "inputs": [
        {
          "internalType": "string",
          "name": "location",
          "type": "string"
        },
        {
          "internalType": "string",
          "name": "temp",
          "type": "string"
        },
        {
          "internalType": "string",
          "name": "humidity",
          "type": "string"
        },
        {
          "internalType": "string",
          "name": "heatindex",
          "type": "string"
        },
        {
          "internalType": "uint256",
          "name": "wid",
          "type": "uint256"
        },
        {
          "internalType": "uint256",
          "name": "pid",
          "type": "uint256"
        },
        {
          "internalType": "bool",
          "name": "flag",
          "type": "bool"
        }
      ],
      "name": "AddStatus",
      "outputs": [],
      "stateMutability": "payable",
      "type": "function"
    },
    {
      "inputs": [
        {
          "internalType": "uint256",
          "name": "id",
          "type": "uint256"
        }
      ],
      "name": "getProductStatus",
      "outputs": [
        {
          "components": [
            {
              "internalType": "string",
              "name": "location",
              "type": "string"
            },
            {
              "internalType": "uint256",
              "name": "timestamp",
              "type": "uint256"
            },
            {
              "internalType": "string",
              "name": "temp",
              "type": "string"
            },
            {
              "internalType": "string",
              "name": "humidity",
              "type": "string"
            },
            {
              "internalType": "string",
              "name": "heatindex",
              "type": "string"
            },
            {
              "internalType": "uint256",
              "name": "w_id",
              "type": "uint256"
            },
            {
              "internalType": "uint256",
              "name": "p_id",
              "type": "uint256"
            },
            {
              "internalType": "bool",
              "name": "flag",
              "type": "bool"
            }
          ],
          "internalType": "struct Supplychain.Status[]",
          "name": "",
          "type": "tuple[]"
        }
      ],
      "stateMutability": "view",
      "type": "function"
    },
    {
      "inputs": [],
      "name": "getProductsList",
      "outputs": [
        {
          "components": [
            {
              "internalType": "uint256",
              "name": "id",
              "type": "uint256"
            },
            {
              "internalType": "string",
              "name": "name",
              "type": "string"
            },
            {
              "internalType": "string",
              "name": "price",
              "type": "string"
            },
            {
              "internalType": "string",
              "name": "description",
              "type": "string"
            },
            {
              "internalType": "string",
              "name": "reqtemp",
              "type": "string"
            },
            {
              "internalType": "string",
              "name": "manufacturing",
              "type": "string"
            },
            {
              "internalType": "uint256",
              "name": "timestamp",
              "type": "uint256"
            }
          ],
          "internalType": "struct Supplychain.Product[]",
          "name": "",
          "type": "tuple[]"
        }
      ],
      "stateMutability": "view",
      "type": "function"
    },
    {
      "inputs": [],
      "name": "getWorkerssList",
      "outputs": [
        {
          "components": [
            {
              "internalType": "string",
              "name": "name",
              "type": "string"
            },
            {
              "internalType": "uint256",
              "name": "id",
              "type": "uint256"
            },
            {
              "internalType": "uint256",
              "name": "timestamp",
              "type": "uint256"
            }
          ],
          "internalType": "struct Supplychain.Worker[]",
          "name": "",
          "type": "tuple[]"
        }
      ],
      "stateMutability": "view",
      "type": "function"
    },
    {
      "inputs": [
        {
          "internalType": "uint256",
          "name": "",
          "type": "uint256"
        }
      ],
      "name": "productStatus",
      "outputs": [
        {
          "internalType": "string",
          "name": "location",
          "type": "string"
        },
        {
          "internalType": "uint256",
          "name": "timestamp",
          "type": "uint256"
        },
        {
          "internalType": "string",
          "name": "temp",
          "type": "string"
        },
        {
          "internalType": "string",
          "name": "humidity",
          "type": "string"
        },
        {
          "internalType": "string",
          "name": "heatindex",
          "type": "string"
        },
        {
          "internalType": "uint256",
          "name": "w_id",
          "type": "uint256"
        },
        {
          "internalType": "uint256",
          "name": "p_id",
          "type": "uint256"
        },
        {
          "internalType": "bool",
          "name": "flag",
          "type": "bool"
        }
      ],
      "stateMutability": "view",
      "type": "function"
    },
    {
      "inputs": [
        {
          "internalType": "uint256",
          "name": "",
          "type": "uint256"
        },
        {
          "internalType": "uint256",
          "name": "",
          "type": "uint256"
        }
      ],
      "name": "product_Status",
      "outputs": [
        {
          "internalType": "string",
          "name": "location",
          "type": "string"
        },
        {
          "internalType": "uint256",
          "name": "timestamp",
          "type": "uint256"
        },
        {
          "internalType": "string",
          "name": "temp",
          "type": "string"
        },
        {
          "internalType": "string",
          "name": "humidity",
          "type": "string"
        },
        {
          "internalType": "string",
          "name": "heatindex",
          "type": "string"
        },
        {
          "internalType": "uint256",
          "name": "w_id",
          "type": "uint256"
        },
        {
          "internalType": "uint256",
          "name": "p_id",
          "type": "uint256"
        },
        {
          "internalType": "bool",
          "name": "flag",
          "type": "bool"
        }
      ],
      "stateMutability": "view",
      "type": "function"
    },
    {
      "inputs": [
        {
          "internalType": "uint256",
          "name": "",
          "type": "uint256"
        }
      ],
      "name": "products",
      "outputs": [
        {
          "internalType": "uint256",
          "name": "id",
          "type": "uint256"
        },
        {
          "internalType": "string",
          "name": "name",
          "type": "string"
        },
        {
          "internalType": "string",
          "name": "price",
          "type": "string"
        },
        {
          "internalType": "string",
          "name": "description",
          "type": "string"
        },
        {
          "internalType": "string",
          "name": "reqtemp",
          "type": "string"
        },
        {
          "internalType": "string",
          "name": "manufacturing",
          "type": "string"
        },
        {
          "internalType": "uint256",
          "name": "timestamp",
          "type": "uint256"
        }
      ],
      "stateMutability": "view",
      "type": "function"
    },
    {
      "inputs": [
        {
          "internalType": "uint256",
          "name": "",
          "type": "uint256"
        }
      ],
      "name": "products_list",
      "outputs": [
        {
          "internalType": "uint256",
          "name": "id",
          "type": "uint256"
        },
        {
          "internalType": "string",
          "name": "name",
          "type": "string"
        },
        {
          "internalType": "string",
          "name": "price",
          "type": "string"
        },
        {
          "internalType": "string",
          "name": "description",
          "type": "string"
        },
        {
          "internalType": "string",
          "name": "reqtemp",
          "type": "string"
        },
        {
          "internalType": "string",
          "name": "manufacturing",
          "type": "string"
        },
        {
          "internalType": "uint256",
          "name": "timestamp",
          "type": "uint256"
        }
      ],
      "stateMutability": "view",
      "type": "function"
    },
    {
      "inputs": [
        {
          "internalType": "string",
          "name": "name",
          "type": "string"
        }
      ],
      "name": "setWorker",
      "outputs": [],
      "stateMutability": "payable",
      "type": "function"
    },
    {
      "inputs": [
        {
          "internalType": "uint256",
          "name": "",
          "type": "uint256"
        }
      ],
      "name": "workers",
      "outputs": [
        {
          "internalType": "string",
          "name": "name",
          "type": "string"
        },
        {
          "internalType": "uint256",
          "name": "id",
          "type": "uint256"
        },
        {
          "internalType": "uint256",
          "name": "timestamp",
          "type": "uint256"
        }
      ],
      "stateMutability": "view",
      "type": "function"
    },
    {
      "inputs": [
        {
          "internalType": "uint256",
          "name": "",
          "type": "uint256"
        }
      ],
      "name": "workers_list",
      "outputs": [
        {
          "internalType": "string",
          "name": "name",
          "type": "string"
        },
        {
          "internalType": "uint256",
          "name": "id",
          "type": "uint256"
        },
        {
          "internalType": "uint256",
          "name": "timestamp",
          "type": "uint256"
        }
      ],
      "stateMutability": "view",
      "type": "function"
    }
  ],
  "bytecode": "0x60806040526000600155600060025534801561001a57600080fd5b50336000806101000a81548173ffffffffffffffffffffffffffffffffffffffff021916908373ffffffffffffffffffffffffffffffffffffffff160217905550612ad48061006a6000396000f3fe6080604052600436106100a75760003560e01c8063876afa6111610064578063876afa61146101e7578063ab4d625414610212578063b20fca601461023d578063bd347ed714610259578063f1a22dc21461029d578063f7aed773146102dc576100a7565b80630ea3d3ee146100ac57806313f6b1bb146100f05780632a4994fc1461012d57806355ed1a01146101495780636728aa89146101885780637acc0b20146101a4575b600080fd5b3480156100b857600080fd5b506100d360048036038101906100ce919061217b565b61031f565b6040516100e798979695949392919061265c565b60405180910390f35b3480156100fc57600080fd5b506101176004803603810190610112919061217b565b6105a4565b6040516101249190612618565b60405180910390f35b61014760048036038101906101429190611f4d565b610898565b005b34801561015557600080fd5b50610170600480360381019061016b919061217b565b6109b7565b60405161017f939291906126f6565b60405180910390f35b6101a2600480360381019061019d919061207d565b610a79565b005b3480156101b057600080fd5b506101cb60048036038101906101c6919061217b565b610d7a565b6040516101de9796959493929190612734565b60405180910390f35b3480156101f357600080fd5b506101fc611064565b604051610209919061263a565b60405180910390f35b34801561021e57600080fd5b50610227611169565b60405161023491906125f6565b60405180910390f35b61025760048036038101906102529190611f8e565b6114b6565b005b34801561026557600080fd5b50610280600480360381019061027b91906121a4565b61174d565b60405161029498979695949392919061265c565b60405180910390f35b3480156102a957600080fd5b506102c460048036038101906102bf919061217b565b6119df565b6040516102d3939291906126f6565b60405180910390f35b3480156102e857600080fd5b5061030360048036038101906102fe919061217b565b611a91565b6040516103169796959493929190612734565b60405180910390f35b600b818154811061032f57600080fd5b906000526020600020906008020160009150905080600001805461035290612957565b80601f016020809104026020016040519081016040528092919081815260200182805461037e90612957565b80156103cb5780601f106103a0576101008083540402835291602001916103cb565b820191906000526020600020905b8154815290600101906020018083116103ae57829003601f168201915b5050505050908060010154908060020180546103e690612957565b80601f016020809104026020016040519081016040528092919081815260200182805461041290612957565b801561045f5780601f106104345761010080835404028352916020019161045f565b820191906000526020600020905b81548152906001019060200180831161044257829003601f168201915b50505050509080600301805461047490612957565b80601f01602080910402602001604051908101604052809291908181526020018280546104a090612957565b80156104ed5780601f106104c2576101008083540402835291602001916104ed565b820191906000526020600020905b8154815290600101906020018083116104d057829003601f168201915b50505050509080600401805461050290612957565b80601f016020809104026020016040519081016040528092919081815260200182805461052e90612957565b801561057b5780601f106105505761010080835404028352916020019161057b565b820191906000526020600020905b81548152906001019060200180831161055e57829003601f168201915b5050505050908060050154908060060154908060070160009054906101000a900460ff16905088565b606060186000838152602001908152602001600020805480602002602001604051908101604052809291908181526020016000905b8282101561088d57838290600052602060002090600802016040518061010001604052908160008201805461060d90612957565b80601f016020809104026020016040519081016040528092919081815260200182805461063990612957565b80156106865780601f1061065b57610100808354040283529160200191610686565b820191906000526020600020905b81548152906001019060200180831161066957829003601f168201915b50505050508152602001600182015481526020016002820180546106a990612957565b80601f01602080910402602001604051908101604052809291908181526020018280546106d590612957565b80156107225780601f106106f757610100808354040283529160200191610722565b820191906000526020600020905b81548152906001019060200180831161070557829003601f168201915b5050505050815260200160038201805461073b90612957565b80601f016020809104026020016040519081016040528092919081815260200182805461076790612957565b80156107b45780601f10610789576101008083540402835291602001916107b4565b820191906000526020600020905b81548152906001019060200180831161079757829003601f168201915b505050505081526020016004820180546107cd90612957565b80601f01602080910402602001604051908101604052809291908181526020018280546107f990612957565b80156108465780601f1061081b57610100808354040283529160200191610846565b820191906000526020600020905b81548152906001019060200180831161082957829003601f168201915b5050505050815260200160058201548152602001600682015481526020016007820160009054906101000a900460ff161515151581525050815260200190600101906105d9565b505050509050919050565b6040518060600160405280828152602001600254815260200142815250601560008201518160000190805190602001906108d3929190611d8b565b5060208201518160010155604082015181600201559050506015601a60006002548152602001908152602001600020600082018160000190805461091690612957565b610921929190611e11565b506001820154816001015560028201548160020155905050601460159080600181540180825580915050600190039060005260206000209060030201600090919091909150600082018160000190805461097a90612957565b610985929190611e11565b5060018201548160010155600282015481600201555050600260008154809291906109af90612989565b919050555050565b601481815481106109c757600080fd5b90600052602060002090600302016000915090508060000180546109ea90612957565b80601f0160208091040260200160405190810160405280929190818152602001828054610a1690612957565b8015610a635780601f10610a3857610100808354040283529160200191610a63565b820191906000526020600020905b815481529060010190602001808311610a4657829003601f168201915b5050505050908060010154908060020154905083565b604051806101000160405280888152602001428152602001878152602001868152602001858152602001848152602001838152602001821515815250600c6000820151816000019080519060200190610ad3929190611d8b565b50602082015181600101556040820151816002019080519060200190610afa929190611d8b565b506060820151816003019080519060200190610b17929190611d8b565b506080820151816004019080519060200190610b34929190611d8b565b5060a0820151816005015560c0820151816006015560e08201518160070160006101000a81548160ff02191690831515021790555090505060186000838152602001908152602001600020600c90806001815401808255809150506001900390600052602060002090600802016000909190919091506000820181600001908054610bbe90612957565b610bc9929190611e11565b50600182015481600101556002820181600201908054610be890612957565b610bf3929190611e11565b506003820181600301908054610c0890612957565b610c13929190611e11565b506004820181600401908054610c2890612957565b610c33929190611e11565b5060058201548160050155600682015481600601556007820160009054906101000a900460ff168160070160006101000a81548160ff0219169083151502179055505050600b600c90806001815401808255809150506001900390600052602060002090600802016000909190919091506000820181600001908054610cb890612957565b610cc3929190611e11565b50600182015481600101556002820181600201908054610ce290612957565b610ced929190611e11565b506003820181600301908054610d0290612957565b610d0d929190611e11565b506004820181600401908054610d2290612957565b610d2d929190611e11565b5060058201548160050155600682015481600601556007820160009054906101000a900460ff168160070160006101000a81548160ff021916908315150217905550505050505050505050565b6019602052806000526040600020600091509050806000015490806001018054610da390612957565b80601f0160208091040260200160405190810160405280929190818152602001828054610dcf90612957565b8015610e1c5780601f10610df157610100808354040283529160200191610e1c565b820191906000526020600020905b815481529060010190602001808311610dff57829003601f168201915b505050505090806002018054610e3190612957565b80601f0160208091040260200160405190810160405280929190818152602001828054610e5d90612957565b8015610eaa5780601f10610e7f57610100808354040283529160200191610eaa565b820191906000526020600020905b815481529060010190602001808311610e8d57829003601f168201915b505050505090806003018054610ebf90612957565b80601f0160208091040260200160405190810160405280929190818152602001828054610eeb90612957565b8015610f385780601f10610f0d57610100808354040283529160200191610f38565b820191906000526020600020905b815481529060010190602001808311610f1b57829003601f168201915b505050505090806004018054610f4d90612957565b80601f0160208091040260200160405190810160405280929190818152602001828054610f7990612957565b8015610fc65780601f10610f9b57610100808354040283529160200191610fc6565b820191906000526020600020905b815481529060010190602001808311610fa957829003601f168201915b505050505090806005018054610fdb90612957565b80601f016020809104026020016040519081016040528092919081815260200182805461100790612957565b80156110545780601f1061102957610100808354040283529160200191611054565b820191906000526020600020905b81548152906001019060200180831161103757829003601f168201915b5050505050908060060154905087565b60606014805480602002602001604051908101604052809291908181526020016000905b8282101561116057838290600052602060002090600302016040518060600160405290816000820180546110bb90612957565b80601f01602080910402602001604051908101604052809291908181526020018280546110e790612957565b80156111345780601f1061110957610100808354040283529160200191611134565b820191906000526020600020905b81548152906001019060200180831161111757829003601f168201915b505050505081526020016001820154815260200160028201548152505081526020019060010190611088565b50505050905090565b60606003805480602002602001604051908101604052809291908181526020016000905b828210156114ad57838290600052602060002090600702016040518060e0016040529081600082015481526020016001820180546111ca90612957565b80601f01602080910402602001604051908101604052809291908181526020018280546111f690612957565b80156112435780601f1061121857610100808354040283529160200191611243565b820191906000526020600020905b81548152906001019060200180831161122657829003601f168201915b5050505050815260200160028201805461125c90612957565b80601f016020809104026020016040519081016040528092919081815260200182805461128890612957565b80156112d55780601f106112aa576101008083540402835291602001916112d5565b820191906000526020600020905b8154815290600101906020018083116112b857829003601f168201915b505050505081526020016003820180546112ee90612957565b80601f016020809104026020016040519081016040528092919081815260200182805461131a90612957565b80156113675780601f1061133c57610100808354040283529160200191611367565b820191906000526020600020905b81548152906001019060200180831161134a57829003601f168201915b5050505050815260200160048201805461138090612957565b80601f01602080910402602001604051908101604052809291908181526020018280546113ac90612957565b80156113f95780601f106113ce576101008083540402835291602001916113f9565b820191906000526020600020905b8154815290600101906020018083116113dc57829003601f168201915b5050505050815260200160058201805461141290612957565b80601f016020809104026020016040519081016040528092919081815260200182805461143e90612957565b801561148b5780601f106114605761010080835404028352916020019161148b565b820191906000526020600020905b81548152906001019060200180831161146e57829003601f168201915b505050505081526020016006820154815250508152602001906001019061118d565b50505050905090565b6040518060e001604052806001548152602001868152602001858152602001848152602001838152602001828152602001428152506004600082015181600001556020820151816001019080519060200190611513929190611d8b565b506040820151816002019080519060200190611530929190611d8b565b50606082015181600301908051906020019061154d929190611d8b565b50608082015181600401908051906020019061156a929190611d8b565b5060a0820151816005019080519060200190611587929190611d8b565b5060c0820151816006015590505060046019600060015481526020019081526020016000206000820154816000015560018201816001019080546115ca90612957565b6115d5929190611e11565b5060028201816002019080546115ea90612957565b6115f5929190611e11565b50600382018160030190805461160a90612957565b611615929190611e11565b50600482018160040190805461162a90612957565b611635929190611e11565b50600582018160050190805461164a90612957565b611655929190611e11565b50600682015481600601559050506003600490806001815401808255809150506001900390600052602060002090600702016000909190919091506000820154816000015560018201816001019080546116ae90612957565b6116b9929190611e11565b5060028201816002019080546116ce90612957565b6116d9929190611e11565b5060038201816003019080546116ee90612957565b6116f9929190611e11565b50600482018160040190805461170e90612957565b611719929190611e11565b50600582018160050190805461172e90612957565b611739929190611e11565b506006820154816006015550505050505050565b6018602052816000526040600020818154811061176957600080fd5b90600052602060002090600802016000915091505080600001805461178d90612957565b80601f01602080910402602001604051908101604052809291908181526020018280546117b990612957565b80156118065780601f106117db57610100808354040283529160200191611806565b820191906000526020600020905b8154815290600101906020018083116117e957829003601f168201915b50505050509080600101549080600201805461182190612957565b80601f016020809104026020016040519081016040528092919081815260200182805461184d90612957565b801561189a5780601f1061186f5761010080835404028352916020019161189a565b820191906000526020600020905b81548152906001019060200180831161187d57829003601f168201915b5050505050908060030180546118af90612957565b80601f01602080910402602001604051908101604052809291908181526020018280546118db90612957565b80156119285780601f106118fd57610100808354040283529160200191611928565b820191906000526020600020905b81548152906001019060200180831161190b57829003601f168201915b50505050509080600401805461193d90612957565b80601f016020809104026020016040519081016040528092919081815260200182805461196990612957565b80156119b65780601f1061198b576101008083540402835291602001916119b6565b820191906000526020600020905b81548152906001019060200180831161199957829003601f168201915b5050505050908060050154908060060154908060070160009054906101000a900460ff16905088565b601a602052806000526040600020600091509050806000018054611a0290612957565b80601f0160208091040260200160405190810160405280929190818152602001828054611a2e90612957565b8015611a7b5780601f10611a5057610100808354040283529160200191611a7b565b820191906000526020600020905b815481529060010190602001808311611a5e57829003601f168201915b5050505050908060010154908060020154905083565b60038181548110611aa157600080fd5b9060005260206000209060070201600091509050806000015490806001018054611aca90612957565b80601f0160208091040260200160405190810160405280929190818152602001828054611af690612957565b8015611b435780601f10611b1857610100808354040283529160200191611b43565b820191906000526020600020905b815481529060010190602001808311611b2657829003601f168201915b505050505090806002018054611b5890612957565b80601f0160208091040260200160405190810160405280929190818152602001828054611b8490612957565b8015611bd15780601f10611ba657610100808354040283529160200191611bd1565b820191906000526020600020905b815481529060010190602001808311611bb457829003601f168201915b505050505090806003018054611be690612957565b80601f0160208091040260200160405190810160405280929190818152602001828054611c1290612957565b8015611c5f5780601f10611c3457610100808354040283529160200191611c5f565b820191906000526020600020905b815481529060010190602001808311611c4257829003601f168201915b505050505090806004018054611c7490612957565b80601f0160208091040260200160405190810160405280929190818152602001828054611ca090612957565b8015611ced5780601f10611cc257610100808354040283529160200191611ced565b820191906000526020600020905b815481529060010190602001808311611cd057829003601f168201915b505050505090806005018054611d0290612957565b80601f0160208091040260200160405190810160405280929190818152602001828054611d2e90612957565b8015611d7b5780601f10611d5057610100808354040283529160200191611d7b565b820191906000526020600020905b815481529060010190602001808311611d5e57829003601f168201915b5050505050908060060154905087565b828054611d9790612957565b90600052602060002090601f016020900481019282611db95760008555611e00565b82601f10611dd257805160ff1916838001178555611e00565b82800160010185558215611e00579182015b82811115611dff578251825591602001919060010190611de4565b5b509050611e0d9190611e9e565b5090565b828054611e1d90612957565b90600052602060002090601f016020900481019282611e3f5760008555611e8d565b82601f10611e505780548555611e8d565b82800160010185558215611e8d57600052602060002091601f016020900482015b82811115611e8c578254825591600101919060010190611e71565b5b509050611e9a9190611e9e565b5090565b5b80821115611eb7576000816000905550600101611e9f565b5090565b6000611ece611ec9846127f7565b6127c6565b905082815260208101848484011115611ee657600080fd5b611ef1848285612915565b509392505050565b600081359050611f0881612a70565b92915050565b600082601f830112611f1f57600080fd5b8135611f2f848260208601611ebb565b91505092915050565b600081359050611f4781612a87565b92915050565b600060208284031215611f5f57600080fd5b600082013567ffffffffffffffff811115611f7957600080fd5b611f8584828501611f0e565b91505092915050565b600080600080600060a08688031215611fa657600080fd5b600086013567ffffffffffffffff811115611fc057600080fd5b611fcc88828901611f0e565b955050602086013567ffffffffffffffff811115611fe957600080fd5b611ff588828901611f0e565b945050604086013567ffffffffffffffff81111561201257600080fd5b61201e88828901611f0e565b935050606086013567ffffffffffffffff81111561203b57600080fd5b61204788828901611f0e565b925050608086013567ffffffffffffffff81111561206457600080fd5b61207088828901611f0e565b9150509295509295909350565b600080600080600080600060e0888a03121561209857600080fd5b600088013567ffffffffffffffff8111156120b257600080fd5b6120be8a828b01611f0e565b975050602088013567ffffffffffffffff8111156120db57600080fd5b6120e78a828b01611f0e565b965050604088013567ffffffffffffffff81111561210457600080fd5b6121108a828b01611f0e565b955050606088013567ffffffffffffffff81111561212d57600080fd5b6121398a828b01611f0e565b945050608061214a8a828b01611f38565b93505060a061215b8a828b01611f38565b92505060c061216c8a828b01611ef9565b91505092959891949750929550565b60006020828403121561218d57600080fd5b600061219b84828501611f38565b91505092915050565b600080604083850312156121b757600080fd5b60006121c585828601611f38565b92505060206121d685828601611f38565b9150509250929050565b60006121ec838361240b565b905092915050565b600061220083836124c3565b905092915050565b60006122148383612588565b905092915050565b600061222782612857565b61223181856128aa565b93508360208202850161224385612827565b8060005b8581101561227f578484038952815161226085826121e0565b945061226b83612883565b925060208a01995050600181019050612247565b50829750879550505050505092915050565b600061229c82612862565b6122a681856128bb565b9350836020820285016122b885612837565b8060005b858110156122f457848403895281516122d585826121f4565b94506122e083612890565b925060208a019950506001810190506122bc565b50829750879550505050505092915050565b60006123118261286d565b61231b81856128cc565b93508360208202850161232d85612847565b8060005b85811015612369578484038952815161234a8582612208565b94506123558361289d565b925060208a01995050600181019050612331565b50829750879550505050505092915050565b612384816128ff565b82525050565b612393816128ff565b82525050565b60006123a482612878565b6123ae81856128dd565b93506123be818560208601612924565b6123c781612a5f565b840191505092915050565b60006123dd82612878565b6123e781856128ee565b93506123f7818560208601612924565b61240081612a5f565b840191505092915050565b600060e08301600083015161242360008601826125d8565b506020830151848203602086015261243b8282612399565b915050604083015184820360408601526124558282612399565b9150506060830151848203606086015261246f8282612399565b915050608083015184820360808601526124898282612399565b91505060a083015184820360a08601526124a38282612399565b91505060c08301516124b860c08601826125d8565b508091505092915050565b60006101008301600083015184820360008601526124e18282612399565b91505060208301516124f660208601826125d8565b506040830151848203604086015261250e8282612399565b915050606083015184820360608601526125288282612399565b915050608083015184820360808601526125428282612399565b91505060a083015161255760a08601826125d8565b5060c083015161256a60c08601826125d8565b5060e083015161257d60e086018261237b565b508091505092915050565b600060608301600083015184820360008601526125a58282612399565b91505060208301516125ba60208601826125d8565b5060408301516125cd60408601826125d8565b508091505092915050565b6125e18161290b565b82525050565b6125f08161290b565b82525050565b60006020820190508181036000830152612610818461221c565b905092915050565b600060208201905081810360008301526126328184612291565b905092915050565b600060208201905081810360008301526126548184612306565b905092915050565b6000610100820190508181036000830152612677818b6123d2565b9050612686602083018a6125e7565b818103604083015261269881896123d2565b905081810360608301526126ac81886123d2565b905081810360808301526126c081876123d2565b90506126cf60a08301866125e7565b6126dc60c08301856125e7565b6126e960e083018461238a565b9998505050505050505050565b6000606082019050818103600083015261271081866123d2565b905061271f60208301856125e7565b61272c60408301846125e7565b949350505050565b600060e082019050612749600083018a6125e7565b818103602083015261275b81896123d2565b9050818103604083015261276f81886123d2565b9050818103606083015261278381876123d2565b9050818103608083015261279781866123d2565b905081810360a08301526127ab81856123d2565b90506127ba60c08301846125e7565b98975050505050505050565b6000604051905081810181811067ffffffffffffffff821117156127ed576127ec612a30565b5b8060405250919050565b600067ffffffffffffffff82111561281257612811612a30565b5b601f19601f8301169050602081019050919050565b6000819050602082019050919050565b6000819050602082019050919050565b6000819050602082019050919050565b600081519050919050565b600081519050919050565b600081519050919050565b600081519050919050565b6000602082019050919050565b6000602082019050919050565b6000602082019050919050565b600082825260208201905092915050565b600082825260208201905092915050565b600082825260208201905092915050565b600082825260208201905092915050565b600082825260208201905092915050565b60008115159050919050565b6000819050919050565b82818337600083830152505050565b60005b83811015612942578082015181840152602081019050612927565b83811115612951576000848401525b50505050565b6000600282049050600182168061296f57607f821691505b6020821081141561298357612982612a01565b5b50919050565b60006129948261290b565b91507fffffffffffffffffffffffffffffffffffffffffffffffffffffffffffffffff8214156129c7576129c66129d2565b5b600182019050919050565b7f4e487b7100000000000000000000000000000000000000000000000000000000600052601160045260246000fd5b7f4e487b7100000000000000000000000000000000000000000000000000000000600052602260045260246000fd5b7f4e487b7100000000000000000000000000000000000000000000000000000000600052604160045260246000fd5b6000601f19601f8301169050919050565b612a79816128ff565b8114612a8457600080fd5b50565b612a908161290b565b8114612a9b57600080fd5b5056fea2646970667358221220776366aeda68ff28264631c4ab50171843b1f9e521b8e139a2a73a76b247ed0864736f6c63430008000033",
  "linkReferences": {},
  "deployedLinkReferences": {}
}